{
  "address": "0x0B8F280Df5ca109E702Ea27266aDb0705bfaCF01",
  "abi": [
    {
      "inputs": [
        {
          "internalType": "address",
          "name": "_contractRegistry",
          "type": "address"
        },
        {
          "internalType": "address",
          "name": "_bctAddress",
          "type": "address"
        },
        {
          "internalType": "address",
          "name": "_nctAddress",
          "type": "address"
        }
      ],
      "stateMutability": "nonpayable",
      "type": "constructor"
    },
    {
      "anonymous": false,
      "inputs": [
        {
          "indexed": false,
          "internalType": "address",
          "name": "erc20Addr",
          "type": "address"
        },
        {
          "indexed": false,
          "internalType": "uint256",
          "name": "amount",
          "type": "uint256"
        }
      ],
      "name": "Deposited",
      "type": "event"
    },
    {
      "anonymous": false,
      "inputs": [
        {
          "indexed": true,
          "internalType": "address",
          "name": "previousOwner",
          "type": "address"
        },
        {
          "indexed": true,
          "internalType": "address",
          "name": "newOwner",
          "type": "address"
        }
      ],
      "name": "OwnershipTransferred",
      "type": "event"
    },
    {
      "anonymous": false,
      "inputs": [
        {
          "indexed": false,
          "internalType": "address",
          "name": "account",
          "type": "address"
        },
        {
          "indexed": false,
          "internalType": "address",
          "name": "erc20Addr",
          "type": "address"
        },
        {
          "indexed": false,
          "internalType": "uint256",
          "name": "amount",
          "type": "uint256"
        }
      ],
      "name": "Withdrawn",
      "type": "event"
    },
    {
      "inputs": [],
      "name": "bctAddress",
      "outputs": [
        {
          "internalType": "address",
          "name": "",
          "type": "address"
        }
      ],
      "stateMutability": "view",
      "type": "function"
    },
    {
      "inputs": [],
      "name": "checkIfWithdrawalTimeout",
      "outputs": [
        {
          "internalType": "bool",
          "name": "",
          "type": "bool"
        }
      ],
      "stateMutability": "nonpayable",
      "type": "function"
    },
    {
      "inputs": [],
      "name": "contractRegistry",
      "outputs": [
        {
          "internalType": "address",
          "name": "",
          "type": "address"
        }
      ],
      "stateMutability": "view",
      "type": "function"
    },
    {
      "inputs": [
        {
          "internalType": "address",
          "name": "_erc20Address",
          "type": "address"
        },
        {
          "internalType": "uint256",
          "name": "_amount",
          "type": "uint256"
        }
      ],
      "name": "deposit",
      "outputs": [],
      "stateMutability": "nonpayable",
      "type": "function"
    },
    {
      "inputs": [
        {
          "internalType": "address[]",
          "name": "_erc20Addresses",
          "type": "address[]"
        }
      ],
      "name": "getTokenBalances",
      "outputs": [
        {
          "internalType": "uint256[]",
          "name": "",
          "type": "uint256[]"
        }
      ],
      "stateMutability": "view",
      "type": "function"
    },
    {
      "inputs": [],
      "name": "nctAddress",
      "outputs": [
        {
          "internalType": "address",
          "name": "",
          "type": "address"
        }
      ],
      "stateMutability": "view",
      "type": "function"
    },
    {
      "inputs": [],
      "name": "owner",
      "outputs": [
        {
          "internalType": "address",
          "name": "",
          "type": "address"
        }
      ],
      "stateMutability": "view",
      "type": "function"
    },
    {
      "inputs": [
        {
          "internalType": "address",
          "name": "_erc20Address",
          "type": "address"
        },
        {
          "internalType": "uint256",
          "name": "_amount",
          "type": "uint256"
        }
      ],
      "name": "ownerWithdraw",
      "outputs": [],
      "stateMutability": "nonpayable",
      "type": "function"
    },
    {
      "inputs": [],
      "name": "renounceOwnership",
      "outputs": [],
      "stateMutability": "nonpayable",
      "type": "function"
    },
    {
      "inputs": [
        {
          "internalType": "address",
          "name": "_address",
          "type": "address"
        }
      ],
      "name": "setToucanContractRegistry",
      "outputs": [],
      "stateMutability": "nonpayable",
      "type": "function"
    },
    {
      "inputs": [
        {
          "internalType": "address",
          "name": "newOwner",
          "type": "address"
        }
      ],
      "name": "transferOwnership",
      "outputs": [],
      "stateMutability": "nonpayable",
      "type": "function"
    },
    {
      "inputs": [
        {
          "internalType": "address",
          "name": "_erc20Address",
          "type": "address"
        },
        {
          "internalType": "uint256",
          "name": "_amount",
          "type": "uint256"
        }
      ],
      "name": "withdraw",
      "outputs": [],
      "stateMutability": "nonpayable",
      "type": "function"
    }
  ],
  "transactionHash": "0x93d32bb163e1e30b1bf1eb95cc841e08e98d52626ad803f077b8cea6ef86a7a0",
  "args": [
    "0x48E04110aa4691ec3E9493187e6e9A3dB613e6e4",
    "0x4c5f90C50Ca9F849bb75D93a393A4e1B6E68Accb",
    "0xfb60a08855389F3c0A66b29aB9eFa911ed5cbCB5"
  ],
  "numDeployments": 2,
  "solcInputHash": "5e88708ebec9bdef6d2f8da1c040737b",
  "bytecode": "0x608060405234801561001057600080fd5b50604051610ed3380380610ed383398101604081905261002f916100e6565b6100383361007a565b600180546001600160a01b039485166001600160a01b031991821617909155600280549385169382169390931790925560038054919093169116179055610128565b600080546001600160a01b038381166001600160a01b0319831681178455604051919092169283917f8be0079c531659141344cd1fd0a4f28419497f9722a3daafe3b4186f6b6457e09190a35050565b80516001600160a01b03811681146100e157600080fd5b919050565b6000806000606084860312156100fa578283fd5b610103846100ca565b9250610111602085016100ca565b915061011f604085016100ca565b90509250925092565b610d9c806101376000396000f3fe608060405234801561001057600080fd5b50600436106100b45760003560e01c8063d9c88e1411610071578063d9c88e141461013e578063df0c5e1514610151578063e882e37b14610164578063f2fde38b14610177578063f3fef3a31461018a578063f50bd69f1461019d57600080fd5b80632ada5a59146100b957806347e7ef24146100d6578063715018a6146100eb5780638da5cb5b146100f3578063abf410e514610118578063d03047371461012b575b600080fd5b6100c16101bd565b60405190151581526020015b60405180910390f35b6100e96100e4366004610b21565b61021e565b005b6100e96102cb565b6000546001600160a01b03165b6040516001600160a01b0390911681526020016100cd565b600154610100906001600160a01b031681565b600354610100906001600160a01b031681565b6100e961014c366004610b21565b6102df565b600254610100906001600160a01b031681565b6100e9610172366004610b00565b6102ff565b6100e9610185366004610b00565b610329565b6100e9610198366004610b21565b6103a2565b6101b06101ab366004610b4a565b610511565b6040516100cd9190610c65565b33600090815260046020526040812054601e906101ef576101de8142610cdc565b336000908152600460205260409020555b6101f98142610cdc565b336000908152600460205260409020541161021657600091505090565b600191505090565b60006102298361065c565b90508061026e5760405162461bcd60e51b815260206004820152600e60248201526d151bdad95b881c995a9958dd195960921b60448201526064015b60405180910390fd5b6102836001600160a01b038416333085610735565b604080516001600160a01b0385168152602081018490527f2da466a7b24304f47e87fa2e1e5a81b9831ce54fec19055ce277ca2f39ba42c491015b60405180910390a1505050565b6102d36107a6565b6102dd6000610800565b565b6102e76107a6565b6102fb6001600160a01b0383163383610850565b5050565b6103076107a6565b600180546001600160a01b0319166001600160a01b0392909216919091179055565b6103316107a6565b6001600160a01b0381166103965760405162461bcd60e51b815260206004820152602660248201527f4f776e61626c653a206e6577206f776e657220697320746865207a65726f206160448201526564647265737360d01b6064820152608401610265565b61039f81610800565b50565b60006103ad8361065c565b9050806103ed5760405162461bcd60e51b815260206004820152600e60248201526d151bdad95b881c995a9958dd195960921b6044820152606401610265565b6103f56101bd565b156104425760405162461bcd60e51b815260206004820152601a60248201527f43616e6e6f742077697468647261772074686174206f6674656e0000000000006044820152606401610265565b336000908152600460205260409020429055674563918244f400008211156104b75760405162461bcd60e51b815260206004820152602260248201527f43616e6e6f74207769746864726177206d6f7265207468616e203520746f6b656044820152616e7360f01b6064820152608401610265565b6104cb6001600160a01b0384163384610850565b604080513381526001600160a01b03851660208201529081018390527fd1c19fbcd4551a5edfb66d43d2e337c04837afda3482b42bdf569a8fccdae5fb906060016102be565b60606000825167ffffffffffffffff81111561053d57634e487b7160e01b600052604160045260246000fd5b604051908082528060200260200182016040528015610566578160200160208202803683370190505b50905060005b83518110156106555783818151811061059557634e487b7160e01b600052603260045260246000fd5b60209081029190910101516040516370a0823160e01b81523060048201526001600160a01b03909116906370a082319060240160206040518083038186803b1580156105e057600080fd5b505afa1580156105f4573d6000803e3d6000fd5b505050506040513d601f19601f820116820180604052508101906106189190610c31565b82828151811061063857634e487b7160e01b600052603260045260246000fd5b60209081029190910101528061064d81610d1f565b91505061056c565b5092915050565b60015460405163787d871360e01b81526001600160a01b038381166004830152600092839291169063787d87139060240160206040518083038186803b1580156106a557600080fd5b505afa1580156106b9573d6000803e3d6000fd5b505050506040513d601f19601f820116820180604052508101906106dd9190610c11565b905080156106ee5750600192915050565b6002546001600160a01b038481169116141561070d5750600192915050565b6003546001600160a01b038481169116141561072c5750600192915050565b50600092915050565b6040516001600160a01b03808516602483015283166044820152606481018290526107a09085906323b872dd60e01b906084015b60408051601f198184030181529190526020810180516001600160e01b03166001600160e01b031990931692909217909152610885565b50505050565b6000546001600160a01b031633146102dd5760405162461bcd60e51b815260206004820181905260248201527f4f776e61626c653a2063616c6c6572206973206e6f7420746865206f776e65726044820152606401610265565b600080546001600160a01b038381166001600160a01b0319831681178455604051919092169283917f8be0079c531659141344cd1fd0a4f28419497f9722a3daafe3b4186f6b6457e09190a35050565b6040516001600160a01b03831660248201526044810182905261088090849063a9059cbb60e01b90606401610769565b505050565b60006108da826040518060400160405280602081526020017f5361666545524332303a206c6f772d6c6576656c2063616c6c206661696c6564815250856001600160a01b03166109579092919063ffffffff16565b80519091501561088057808060200190518101906108f89190610c11565b6108805760405162461bcd60e51b815260206004820152602a60248201527f5361666545524332303a204552433230206f7065726174696f6e20646964206e6044820152691bdd081cdd58d8d9595960b21b6064820152608401610265565b6060610966848460008561096e565b949350505050565b6060824710156109cf5760405162461bcd60e51b815260206004820152602660248201527f416464726573733a20696e73756666696369656e742062616c616e636520666f6044820152651c8818d85b1b60d21b6064820152608401610265565b600080866001600160a01b031685876040516109eb9190610c49565b60006040518083038185875af1925050503d8060008114610a28576040519150601f19603f3d011682016040523d82523d6000602084013e610a2d565b606091505b5091509150610a3e87838387610a49565b979650505050505050565b60608315610ab5578251610aae576001600160a01b0385163b610aae5760405162461bcd60e51b815260206004820152601d60248201527f416464726573733a2063616c6c20746f206e6f6e2d636f6e74726163740000006044820152606401610265565b5081610966565b6109668383815115610aca5781518083602001fd5b8060405162461bcd60e51b81526004016102659190610ca9565b80356001600160a01b0381168114610afb57600080fd5b919050565b600060208284031215610b11578081fd5b610b1a82610ae4565b9392505050565b60008060408385031215610b33578081fd5b610b3c83610ae4565b946020939093013593505050565b60006020808385031215610b5c578182fd5b823567ffffffffffffffff80821115610b73578384fd5b818501915085601f830112610b86578384fd5b813581811115610b9857610b98610d50565b8060051b604051601f19603f83011681018181108582111715610bbd57610bbd610d50565b604052828152858101935084860182860187018a1015610bdb578788fd5b8795505b83861015610c0457610bf081610ae4565b855260019590950194938601938601610bdf565b5098975050505050505050565b600060208284031215610c22578081fd5b81518015158114610b1a578182fd5b600060208284031215610c42578081fd5b5051919050565b60008251610c5b818460208701610cf3565b9190910192915050565b6020808252825182820181905260009190848201906040850190845b81811015610c9d57835183529284019291840191600101610c81565b50909695505050505050565b6020815260008251806020840152610cc8816040850160208701610cf3565b601f01601f19169190910160400192915050565b600082821015610cee57610cee610d3a565b500390565b60005b83811015610d0e578181015183820152602001610cf6565b838111156107a05750506000910152565b6000600019821415610d3357610d33610d3a565b5060010190565b634e487b7160e01b600052601160045260246000fd5b634e487b7160e01b600052604160045260246000fdfea2646970667358221220e551702452fe53f1630e770088567689ceb23aadae634549876a352b8f905eae64736f6c63430008040033",
  "devdoc": {
    "kind": "dev",
    "methods": {
      "checkIfWithdrawalTimeout()": {
        "returns": {
          "_0": "true if in timeout, false if not"
        }
      },
      "deposit(address,uint256)": {
        "params": {
          "_amount": "amount to be deposited",
          "_erc20Address": "ERC20 contract address to be deposited"
        }
      },
      "getTokenBalances(address[])": {
        "params": {
          "_erc20Addresses": "An array of ERC20 contract addresses"
        },
        "returns": {
          "_0": "An array of balances"
        }
      },
      "owner()": {
        "details": "Returns the address of the current owner."
      },
      "ownerWithdraw(address,uint256)": {
        "params": {
          "_amount": "amount of tokens to be withdrawn",
          "_erc20Address": "address of the token to be withdrawn"
        }
      },
      "renounceOwnership()": {
        "details": "Leaves the contract without owner. It will not be possible to call `onlyOwner` functions anymore. Can only be called by the current owner. NOTE: Renouncing ownership will leave the contract without an owner, thereby removing any functionality that is only available to the owner."
      },
      "setToucanContractRegistry(address)": {
        "params": {
          "_address": "the new contract registry address"
        }
      },
      "transferOwnership(address)": {
        "details": "Transfers ownership of the contract to a new account (`newOwner`). Can only be called by the current owner."
      },
      "withdraw(address,uint256)": {
        "params": {
          "_amount": "amount to be withdrawn",
          "_erc20Address": "ERC20 contract address to be withdrawn"
        }
      }
    },
    "version": 1
  },
  "userdoc": {
    "kind": "user",
    "methods": {
      "checkIfWithdrawalTimeout()": {
        "notice": "checks if the Faucet is in a withdrawal timeout for the caller"
      },
      "deposit(address,uint256)": {
        "notice": "deposit tokens from caller to Faucet"
      },
      "getTokenBalances(address[])": {
        "notice": "A function to get the Faucet's balances of multiple tokens at once"
      },
      "ownerWithdraw(address,uint256)": {
        "notice": "function that is only callable by owner and can withdraw as many tokens from this contract as they want"
      },
      "setToucanContractRegistry(address)": {
        "notice": "change the TCO2 contracts registry"
      },
      "withdraw(address,uint256)": {
        "notice": "withdraw tokens from Faucet to caller"
      }
    },
    "version": 1
  },
  "storageLayout": {
    "storage": [
      {
        "astId": 7,
        "contract": "contracts/Faucet.sol:Faucet",
        "label": "_owner",
        "offset": 0,
        "slot": "0",
        "type": "t_address"
      },
      {
        "astId": 876,
        "contract": "contracts/Faucet.sol:Faucet",
        "label": "contractRegistry",
        "offset": 0,
        "slot": "1",
        "type": "t_address"
      },
      {
        "astId": 878,
        "contract": "contracts/Faucet.sol:Faucet",
        "label": "bctAddress",
        "offset": 0,
        "slot": "2",
        "type": "t_address"
      },
      {
        "astId": 880,
        "contract": "contracts/Faucet.sol:Faucet",
        "label": "nctAddress",
        "offset": 0,
        "slot": "3",
        "type": "t_address"
      },
      {
        "astId": 884,
        "contract": "contracts/Faucet.sol:Faucet",
        "label": "lastWithdrawalTimes",
        "offset": 0,
        "slot": "4",
        "type": "t_mapping(t_address,t_uint256)"
      }
    ],
    "types": {
      "t_address": {
        "encoding": "inplace",
        "label": "address",
        "numberOfBytes": "20"
      },
      "t_mapping(t_address,t_uint256)": {
        "encoding": "mapping",
        "key": "t_address",
        "label": "mapping(address => uint256)",
        "numberOfBytes": "32",
        "value": "t_uint256"
      },
      "t_uint256": {
        "encoding": "inplace",
        "label": "uint256",
        "numberOfBytes": "32"
      }
    }
  }
}