{
  "_format": "hh-sol-artifact-1",
  "contractName": "Faucet",
  "sourceName": "contracts/Faucet.sol",
  "abi": [
    {
      "anonymous": false,
      "inputs": [
        {
          "indexed": false,
          "internalType": "address",
          "name": "erc20Addr",
          "type": "address"
        },
        {
          "indexed": false,
          "internalType": "uint256",
          "name": "amount",
          "type": "uint256"
        }
      ],
      "name": "Deposited",
      "type": "event"
    },
    {
      "anonymous": false,
      "inputs": [
        {
          "indexed": true,
          "internalType": "address",
          "name": "previousOwner",
          "type": "address"
        },
        {
          "indexed": true,
          "internalType": "address",
          "name": "newOwner",
          "type": "address"
        }
      ],
      "name": "OwnershipTransferred",
      "type": "event"
    },
    {
      "anonymous": false,
      "inputs": [
        {
          "indexed": false,
          "internalType": "address",
          "name": "account",
          "type": "address"
        },
        {
          "indexed": false,
          "internalType": "address",
          "name": "erc20Addr",
          "type": "address"
        },
        {
          "indexed": false,
          "internalType": "uint256",
          "name": "amount",
          "type": "uint256"
        }
      ],
      "name": "Withdrawn",
      "type": "event"
    },
    {
      "inputs": [],
      "name": "bctAddress",
      "outputs": [
        {
          "internalType": "address",
          "name": "",
          "type": "address"
        }
      ],
      "stateMutability": "view",
      "type": "function"
    },
    {
      "inputs": [],
      "name": "checkIfWithdrawalTimeout",
      "outputs": [
        {
          "internalType": "bool",
          "name": "",
          "type": "bool"
        }
      ],
      "stateMutability": "nonpayable",
      "type": "function"
    },
    {
      "inputs": [],
      "name": "contractRegistry",
      "outputs": [
        {
          "internalType": "address",
          "name": "",
          "type": "address"
        }
      ],
      "stateMutability": "view",
      "type": "function"
    },
    {
      "inputs": [
        {
          "internalType": "address",
          "name": "_erc20Address",
          "type": "address"
        },
        {
          "internalType": "uint256",
          "name": "_amount",
          "type": "uint256"
        }
      ],
      "name": "deposit",
      "outputs": [],
      "stateMutability": "nonpayable",
      "type": "function"
    },
    {
      "inputs": [
        {
          "internalType": "address",
          "name": "_erc20Address",
          "type": "address"
        }
      ],
      "name": "getTokenBalance",
      "outputs": [
        {
          "internalType": "uint256",
          "name": "",
          "type": "uint256"
        }
      ],
      "stateMutability": "view",
      "type": "function"
    },
    {
      "inputs": [],
      "name": "nctAddress",
      "outputs": [
        {
          "internalType": "address",
          "name": "",
          "type": "address"
        }
      ],
      "stateMutability": "view",
      "type": "function"
    },
    {
      "inputs": [],
      "name": "owner",
      "outputs": [
        {
          "internalType": "address",
          "name": "",
          "type": "address"
        }
      ],
      "stateMutability": "view",
      "type": "function"
    },
    {
      "inputs": [],
      "name": "renounceOwnership",
      "outputs": [],
      "stateMutability": "nonpayable",
      "type": "function"
    },
    {
      "inputs": [
        {
          "internalType": "address",
          "name": "_address",
          "type": "address"
        }
      ],
      "name": "setToucanContractRegistry",
      "outputs": [],
      "stateMutability": "nonpayable",
      "type": "function"
    },
    {
      "inputs": [
        {
          "internalType": "address",
          "name": "newOwner",
          "type": "address"
        }
      ],
      "name": "transferOwnership",
      "outputs": [],
      "stateMutability": "nonpayable",
      "type": "function"
    },
    {
      "inputs": [
        {
          "internalType": "address",
          "name": "_erc20Address",
          "type": "address"
        },
        {
          "internalType": "uint256",
          "name": "_amount",
          "type": "uint256"
        }
      ],
      "name": "withdraw",
      "outputs": [],
      "stateMutability": "nonpayable",
      "type": "function"
    }
  ],
  "bytecode": "0x6080604052606580546001600160a01b0319908116736739d490670b2710dc7e79bb12e455de33ee1cb61790915560668054821673f2438a14f668b1bba53408346288f3d7c71c10a117905560678054909116737becba11618ca63ead5605de235f6dd3b25c530e17905534801561007657600080fd5b50610b8d806100866000396000f3fe608060405234801561001057600080fd5b50600436106100a95760003560e01c8063abf410e511610071578063abf410e514610144578063d030473714610157578063df0c5e151461016a578063e882e37b1461017d578063f2fde38b14610190578063f3fef3a3146101a357600080fd5b80632ada5a59146100ae5780633aecd0e3146100cb57806347e7ef2414610102578063715018a6146101175780638da5cb5b1461011f575b600080fd5b6100b66101b6565b60405190151581526020015b60405180910390f35b6100f46100d93660046109ff565b6001600160a01b031660009081526068602052604090205490565b6040519081526020016100c2565b610115610110366004610a19565b610217565b005b6101156102f1565b6033546001600160a01b03165b6040516001600160a01b0390911681526020016100c2565b60655461012c906001600160a01b031681565b60675461012c906001600160a01b031681565b60665461012c906001600160a01b031681565b61011561018b3660046109ff565b610327565b61011561019e3660046109ff565b610373565b6101156101b1366004610a19565b61040e565b33600090815260696020526040812054601e906101e8576101d78142610afe565b336000908152606960205260409020555b6101f28142610afe565b336000908152606960205260409020541161020f57600091505090565b600191505090565b6000610222836105c6565b9050806102675760405162461bcd60e51b815260206004820152600e60248201526d151bdad95b881c995a9958dd195960921b60448201526064015b60405180910390fd5b61027c6001600160a01b03841633308561069f565b6001600160a01b038316600090815260686020526040812080548492906102a4908490610ae6565b9091555050604080516001600160a01b0385168152602081018490527f2da466a7b24304f47e87fa2e1e5a81b9831ce54fec19055ce277ca2f39ba42c491015b60405180910390a1505050565b6033546001600160a01b0316331461031b5760405162461bcd60e51b815260040161025e90610ab1565b6103256000610710565b565b6033546001600160a01b031633146103515760405162461bcd60e51b815260040161025e90610ab1565b606580546001600160a01b0319166001600160a01b0392909216919091179055565b6033546001600160a01b0316331461039d5760405162461bcd60e51b815260040161025e90610ab1565b6001600160a01b0381166104025760405162461bcd60e51b815260206004820152602660248201527f4f776e61626c653a206e6577206f776e657220697320746865207a65726f206160448201526564647265737360d01b606482015260840161025e565b61040b81610710565b50565b6000610419836105c6565b9050806104595760405162461bcd60e51b815260206004820152600e60248201526d151bdad95b881c995a9958dd195960921b604482015260640161025e565b6104616101b6565b156104ae5760405162461bcd60e51b815260206004820152601a60248201527f43616e6e6f742077697468647261772074686174206f6674656e000000000000604482015260640161025e565b3360009081526069602090815260408083204290556001600160a01b0386168352606890915290205482111561053e5760405162461bcd60e51b815260206004820152602f60248201527f43616e6e6f74207769746864726177206d6f7265207468616e2069732073746f60448201526e1c9959081a5b8818dbdb9d1c9858dd608a1b606482015260840161025e565b6001600160a01b03831660009081526068602052604081208054849290610566908490610afe565b9091555061058090506001600160a01b0384163384610762565b604080513381526001600160a01b03851660208201529081018390527fd1c19fbcd4551a5edfb66d43d2e337c04837afda3482b42bdf569a8fccdae5fb906060016102e4565b60655460405163787d871360e01b81526001600160a01b038381166004830152600092839291169063787d87139060240160206040518083038186803b15801561060f57600080fd5b505afa158015610623573d6000803e3d6000fd5b505050506040513d601f19601f820116820180604052508101906106479190610a42565b905080156106585750600192915050565b6066546001600160a01b03848116911614156106775750600192915050565b6067546001600160a01b03848116911614156106965750600192915050565b50600092915050565b6040516001600160a01b038085166024830152831660448201526064810182905261070a9085906323b872dd60e01b906084015b60408051601f198184030181529190526020810180516001600160e01b03166001600160e01b031990931692909217909152610797565b50505050565b603380546001600160a01b038381166001600160a01b0319831681179093556040519116919082907f8be0079c531659141344cd1fd0a4f28419497f9722a3daafe3b4186f6b6457e090600090a35050565b6040516001600160a01b03831660248201526044810182905261079290849063a9059cbb60e01b906064016106d3565b505050565b60006107ec826040518060400160405280602081526020017f5361666545524332303a206c6f772d6c6576656c2063616c6c206661696c6564815250856001600160a01b03166108699092919063ffffffff16565b805190915015610792578080602001905181019061080a9190610a42565b6107925760405162461bcd60e51b815260206004820152602a60248201527f5361666545524332303a204552433230206f7065726174696f6e20646964206e6044820152691bdd081cdd58d8d9595960b21b606482015260840161025e565b60606108788484600085610882565b90505b9392505050565b6060824710156108e35760405162461bcd60e51b815260206004820152602660248201527f416464726573733a20696e73756666696369656e742062616c616e636520666f6044820152651c8818d85b1b60d21b606482015260840161025e565b843b6109315760405162461bcd60e51b815260206004820152601d60248201527f416464726573733a2063616c6c20746f206e6f6e2d636f6e7472616374000000604482015260640161025e565b600080866001600160a01b0316858760405161094d9190610a62565b60006040518083038185875af1925050503d806000811461098a576040519150601f19603f3d011682016040523d82523d6000602084013e61098f565b606091505b509150915061099f8282866109aa565b979650505050505050565b606083156109b957508161087b565b8251156109c95782518084602001fd5b8160405162461bcd60e51b815260040161025e9190610a7e565b80356001600160a01b03811681146109fa57600080fd5b919050565b600060208284031215610a10578081fd5b61087b826109e3565b60008060408385031215610a2b578081fd5b610a34836109e3565b946020939093013593505050565b600060208284031215610a53578081fd5b8151801515811461087b578182fd5b60008251610a74818460208701610b15565b9190910192915050565b6020815260008251806020840152610a9d816040850160208701610b15565b601f01601f19169190910160400192915050565b6020808252818101527f4f776e61626c653a2063616c6c6572206973206e6f7420746865206f776e6572604082015260600190565b60008219821115610af957610af9610b41565b500190565b600082821015610b1057610b10610b41565b500390565b60005b83811015610b30578181015183820152602001610b18565b8381111561070a5750506000910152565b634e487b7160e01b600052601160045260246000fdfea2646970667358221220749364a2b6fcabfedb260a863378072c80743cd296997feb7117e9c4adfc3fbd64736f6c63430008040033",
  "linkReferences": {},
  "deployedLinkReferences": {}
}