{
  "_format": "hh-sol-artifact-1",
  "contractName": "TCO2Faucet",
  "sourceName": "contracts/TCO2Faucet.sol",
  "abi": [
    {
      "anonymous": false,
      "inputs": [
        {
          "indexed": false,
          "internalType": "address",
          "name": "erc20Addr",
          "type": "address"
        },
        {
          "indexed": false,
          "internalType": "uint256",
          "name": "amount",
          "type": "uint256"
        }
      ],
      "name": "Deposited",
      "type": "event"
    },
    {
      "anonymous": false,
      "inputs": [
        {
          "indexed": true,
          "internalType": "address",
          "name": "previousOwner",
          "type": "address"
        },
        {
          "indexed": true,
          "internalType": "address",
          "name": "newOwner",
          "type": "address"
        }
      ],
      "name": "OwnershipTransferred",
      "type": "event"
    },
    {
      "anonymous": false,
      "inputs": [
        {
          "indexed": false,
          "internalType": "address",
          "name": "account",
          "type": "address"
        },
        {
          "indexed": false,
          "internalType": "address",
          "name": "erc20Addr",
          "type": "address"
        },
        {
          "indexed": false,
          "internalType": "uint256",
          "name": "amount",
          "type": "uint256"
        }
      ],
      "name": "Withdrawn",
      "type": "event"
    },
    {
      "inputs": [],
      "name": "checkIfWithdrawalTimeout",
      "outputs": [
        {
          "internalType": "bool",
          "name": "",
          "type": "bool"
        }
      ],
      "stateMutability": "nonpayable",
      "type": "function"
    },
    {
      "inputs": [],
      "name": "contractRegistry",
      "outputs": [
        {
          "internalType": "address",
          "name": "",
          "type": "address"
        }
      ],
      "stateMutability": "view",
      "type": "function"
    },
    {
      "inputs": [
        {
          "internalType": "address",
          "name": "_erc20Address",
          "type": "address"
        },
        {
          "internalType": "uint256",
          "name": "_amount",
          "type": "uint256"
        }
      ],
      "name": "deposit",
      "outputs": [],
      "stateMutability": "nonpayable",
      "type": "function"
    },
    {
      "inputs": [
        {
          "internalType": "address",
          "name": "_erc20Address",
          "type": "address"
        }
      ],
      "name": "getTokenBalance",
      "outputs": [
        {
          "internalType": "uint256",
          "name": "",
          "type": "uint256"
        }
      ],
      "stateMutability": "view",
      "type": "function"
    },
    {
      "inputs": [],
      "name": "owner",
      "outputs": [
        {
          "internalType": "address",
          "name": "",
          "type": "address"
        }
      ],
      "stateMutability": "view",
      "type": "function"
    },
    {
      "inputs": [],
      "name": "renounceOwnership",
      "outputs": [],
      "stateMutability": "nonpayable",
      "type": "function"
    },
    {
      "inputs": [
        {
          "internalType": "address",
          "name": "_address",
          "type": "address"
        }
      ],
      "name": "setToucanContractRegistry",
      "outputs": [],
      "stateMutability": "nonpayable",
      "type": "function"
    },
    {
      "inputs": [
        {
          "internalType": "address",
          "name": "newOwner",
          "type": "address"
        }
      ],
      "name": "transferOwnership",
      "outputs": [],
      "stateMutability": "nonpayable",
      "type": "function"
    },
    {
      "inputs": [
        {
          "internalType": "address",
          "name": "_erc20Address",
          "type": "address"
        },
        {
          "internalType": "uint256",
          "name": "_amount",
          "type": "uint256"
        }
      ],
      "name": "withdraw",
      "outputs": [],
      "stateMutability": "nonpayable",
      "type": "function"
    }
  ],
  "bytecode": "0x6080604052606580546001600160a01b031916736739d490670b2710dc7e79bb12e455de33ee1cb617905534801561003657600080fd5b50610b13806100466000396000f3fe608060405234801561001057600080fd5b50600436106100935760003560e01c80638da5cb5b116100665780638da5cb5b14610109578063abf410e51461012e578063e882e37b14610141578063f2fde38b14610154578063f3fef3a31461016757600080fd5b80632ada5a59146100985780633aecd0e3146100b557806347e7ef24146100ec578063715018a614610101575b600080fd5b6100a061017a565b60405190151581526020015b60405180910390f35b6100de6100c3366004610985565b6001600160a01b031660009081526066602052604090205490565b6040519081526020016100ac565b6100ff6100fa36600461099f565b6101db565b005b6100ff6102b5565b6033546001600160a01b03165b6040516001600160a01b0390911681526020016100ac565b606554610116906001600160a01b031681565b6100ff61014f366004610985565b6102eb565b6100ff610162366004610985565b610337565b6100ff61017536600461099f565b6103d2565b33600090815260676020526040812054601e906101ac5761019b8142610a84565b336000908152606760205260409020555b6101b68142610a84565b33600090815260676020526040902054116101d357600091505090565b600191505090565b60006101e68361058a565b90508061022b5760405162461bcd60e51b815260206004820152600e60248201526d151bdad95b881c995a9958dd195960921b60448201526064015b60405180910390fd5b6102406001600160a01b038416333085610625565b6001600160a01b03831660009081526066602052604081208054849290610268908490610a6c565b9091555050604080516001600160a01b0385168152602081018490527f2da466a7b24304f47e87fa2e1e5a81b9831ce54fec19055ce277ca2f39ba42c491015b60405180910390a1505050565b6033546001600160a01b031633146102df5760405162461bcd60e51b815260040161022290610a37565b6102e96000610696565b565b6033546001600160a01b031633146103155760405162461bcd60e51b815260040161022290610a37565b606580546001600160a01b0319166001600160a01b0392909216919091179055565b6033546001600160a01b031633146103615760405162461bcd60e51b815260040161022290610a37565b6001600160a01b0381166103c65760405162461bcd60e51b815260206004820152602660248201527f4f776e61626c653a206e6577206f776e657220697320746865207a65726f206160448201526564647265737360d01b6064820152608401610222565b6103cf81610696565b50565b60006103dd8361058a565b90508061041d5760405162461bcd60e51b815260206004820152600e60248201526d151bdad95b881c995a9958dd195960921b6044820152606401610222565b61042561017a565b156104725760405162461bcd60e51b815260206004820152601a60248201527f43616e6e6f742077697468647261772074686174206f6674656e0000000000006044820152606401610222565b3360009081526067602090815260408083204290556001600160a01b038616835260669091529020548211156105025760405162461bcd60e51b815260206004820152602f60248201527f43616e6e6f74207769746864726177206d6f7265207468616e2069732073746f60448201526e1c9959081a5b8818dbdb9d1c9858dd608a1b6064820152608401610222565b6001600160a01b0383166000908152606660205260408120805484929061052a908490610a84565b9091555061054490506001600160a01b03841633846106e8565b604080513381526001600160a01b03851660208201529081018390527fd1c19fbcd4551a5edfb66d43d2e337c04837afda3482b42bdf569a8fccdae5fb906060016102a8565b60655460405163787d871360e01b81526001600160a01b038381166004830152600092839291169063787d87139060240160206040518083038186803b1580156105d357600080fd5b505afa1580156105e7573d6000803e3d6000fd5b505050506040513d601f19601f8201168201806040525081019061060b91906109c8565b9050801561061c5750600192915050565b50600092915050565b6040516001600160a01b03808516602483015283166044820152606481018290526106909085906323b872dd60e01b906084015b60408051601f198184030181529190526020810180516001600160e01b03166001600160e01b03199093169290921790915261071d565b50505050565b603380546001600160a01b038381166001600160a01b0319831681179093556040519116919082907f8be0079c531659141344cd1fd0a4f28419497f9722a3daafe3b4186f6b6457e090600090a35050565b6040516001600160a01b03831660248201526044810182905261071890849063a9059cbb60e01b90606401610659565b505050565b6000610772826040518060400160405280602081526020017f5361666545524332303a206c6f772d6c6576656c2063616c6c206661696c6564815250856001600160a01b03166107ef9092919063ffffffff16565b805190915015610718578080602001905181019061079091906109c8565b6107185760405162461bcd60e51b815260206004820152602a60248201527f5361666545524332303a204552433230206f7065726174696f6e20646964206e6044820152691bdd081cdd58d8d9595960b21b6064820152608401610222565b60606107fe8484600085610808565b90505b9392505050565b6060824710156108695760405162461bcd60e51b815260206004820152602660248201527f416464726573733a20696e73756666696369656e742062616c616e636520666f6044820152651c8818d85b1b60d21b6064820152608401610222565b843b6108b75760405162461bcd60e51b815260206004820152601d60248201527f416464726573733a2063616c6c20746f206e6f6e2d636f6e74726163740000006044820152606401610222565b600080866001600160a01b031685876040516108d391906109e8565b60006040518083038185875af1925050503d8060008114610910576040519150601f19603f3d011682016040523d82523d6000602084013e610915565b606091505b5091509150610925828286610930565b979650505050505050565b6060831561093f575081610801565b82511561094f5782518084602001fd5b8160405162461bcd60e51b81526004016102229190610a04565b80356001600160a01b038116811461098057600080fd5b919050565b600060208284031215610996578081fd5b61080182610969565b600080604083850312156109b1578081fd5b6109ba83610969565b946020939093013593505050565b6000602082840312156109d9578081fd5b81518015158114610801578182fd5b600082516109fa818460208701610a9b565b9190910192915050565b6020815260008251806020840152610a23816040850160208701610a9b565b601f01601f19169190910160400192915050565b6020808252818101527f4f776e61626c653a2063616c6c6572206973206e6f7420746865206f776e6572604082015260600190565b60008219821115610a7f57610a7f610ac7565b500190565b600082821015610a9657610a96610ac7565b500390565b60005b83811015610ab6578181015183820152602001610a9e565b838111156106905750506000910152565b634e487b7160e01b600052601160045260246000fdfea2646970667358221220b08aabc8151cbbba3a4a891581e9d872f6060fd3e03cb27aeae1b1b101dfea8064736f6c63430008040033",
  "linkReferences": {},
  "deployedLinkReferences": {}
}