{
  "_format": "hh-sol-artifact-1",
  "contractName": "TCO2Faucet",
  "sourceName": "contracts/TCO2Faucet.sol",
  "abi": [
    {
      "inputs": [
        {
          "internalType": "address",
          "name": "_tco2Address",
          "type": "address"
        }
      ],
      "stateMutability": "nonpayable",
      "type": "constructor"
    },
    {
      "anonymous": false,
      "inputs": [
        {
          "indexed": false,
          "internalType": "address",
          "name": "erc20Addr",
          "type": "address"
        },
        {
          "indexed": false,
          "internalType": "uint256",
          "name": "amount",
          "type": "uint256"
        }
      ],
      "name": "Deposited",
      "type": "event"
    },
    {
      "anonymous": false,
      "inputs": [
        {
          "indexed": false,
          "internalType": "address",
          "name": "account",
          "type": "address"
        },
        {
          "indexed": false,
          "internalType": "address",
          "name": "erc20Addr",
          "type": "address"
        },
        {
          "indexed": false,
          "internalType": "uint256",
          "name": "amount",
          "type": "uint256"
        }
      ],
      "name": "Withdrawn",
      "type": "event"
    },
    {
      "inputs": [
        {
          "internalType": "address",
          "name": "_erc20Address",
          "type": "address"
        }
      ],
      "name": "checkEligible",
      "outputs": [
        {
          "internalType": "bool",
          "name": "",
          "type": "bool"
        }
      ],
      "stateMutability": "view",
      "type": "function"
    },
    {
      "inputs": [],
      "name": "checkIfWithdrawalTimeout",
      "outputs": [
        {
          "internalType": "bool",
          "name": "",
          "type": "bool"
        }
      ],
      "stateMutability": "nonpayable",
      "type": "function"
    },
    {
      "inputs": [
        {
          "internalType": "address",
          "name": "_erc20Address",
          "type": "address"
        },
        {
          "internalType": "uint256",
          "name": "_amount",
          "type": "uint256"
        }
      ],
      "name": "deposit",
      "outputs": [],
      "stateMutability": "nonpayable",
      "type": "function"
    },
    {
      "inputs": [],
      "name": "footprint",
      "outputs": [
        {
          "internalType": "uint256",
          "name": "",
          "type": "uint256"
        }
      ],
      "stateMutability": "view",
      "type": "function"
    },
    {
      "inputs": [
        {
          "internalType": "address",
          "name": "_erc20Address",
          "type": "address"
        }
      ],
      "name": "getTokenBalance",
      "outputs": [
        {
          "internalType": "uint256",
          "name": "",
          "type": "uint256"
        }
      ],
      "stateMutability": "view",
      "type": "function"
    },
    {
      "inputs": [],
      "name": "owner",
      "outputs": [
        {
          "internalType": "address",
          "name": "",
          "type": "address"
        }
      ],
      "stateMutability": "view",
      "type": "function"
    },
    {
      "inputs": [],
      "name": "tco2Address",
      "outputs": [
        {
          "internalType": "address",
          "name": "",
          "type": "address"
        }
      ],
      "stateMutability": "view",
      "type": "function"
    },
    {
      "inputs": [
        {
          "internalType": "address",
          "name": "_erc20Address",
          "type": "address"
        },
        {
          "internalType": "uint256",
          "name": "_amount",
          "type": "uint256"
        }
      ],
      "name": "withdraw",
      "outputs": [],
      "stateMutability": "nonpayable",
      "type": "function"
    }
  ],
  "bytecode": "0x608060405234801561001057600080fd5b5060405161097738038061097783398101604081905261002f91610054565b600180546001600160a01b0319166001600160a01b0392909216919091179055610082565b600060208284031215610065578081fd5b81516001600160a01b038116811461007b578182fd5b9392505050565b6108e6806100916000396000f3fe608060405234801561001057600080fd5b50600436106100885760003560e01c80638a416ea91161005b5780638a416ea9146101215780638da5cb5b1461012a578063dc5f560e1461013d578063f3fef3a31461015057600080fd5b80630d11dc3a1461008d5780632ada5a59146100bd5780633aecd0e3146100d557806347e7ef241461010c575b600080fd5b6001546100a0906001600160a01b031681565b6040516001600160a01b0390911681526020015b60405180910390f35b6100c5610163565b60405190151581526020016100b4565b6100fe6100e336600461078d565b6001600160a01b031660009081526003602052604090205490565b6040519081526020016100b4565b61011f61011a3660046107a7565b6101c4565b005b6100fe60005481565b6002546100a0906001600160a01b031681565b6100c561014b36600461078d565b61029e565b61011f61015e3660046107a7565b6102c7565b33600090815260046020526040812054601e90610195576101848142610857565b336000908152600460205260409020555b61019f8142610857565b33600090815260046020526040902054116101bc57600091505090565b600191505090565b60006101cf8361029e565b9050806102145760405162461bcd60e51b815260206004820152600e60248201526d151bdad95b881c995a9958dd195960921b60448201526064015b60405180910390fd5b6102296001600160a01b03841633308561047f565b6001600160a01b0383166000908152600360205260408120805484929061025190849061083f565b9091555050604080516001600160a01b0385168152602081018490527f2da466a7b24304f47e87fa2e1e5a81b9831ce54fec19055ce277ca2f39ba42c491015b60405180910390a1505050565b6001546000906001600160a01b03838116911614156102bf57506001919050565b506000919050565b60006102d28361029e565b9050806103125760405162461bcd60e51b815260206004820152600e60248201526d151bdad95b881c995a9958dd195960921b604482015260640161020b565b61031a610163565b156103675760405162461bcd60e51b815260206004820152601a60248201527f43616e6e6f742077697468647261772074686174206f6674656e000000000000604482015260640161020b565b3360009081526004602090815260408083204290556001600160a01b038616835260039091529020548211156103f75760405162461bcd60e51b815260206004820152602f60248201527f43616e6e6f74207769746864726177206d6f7265207468616e2069732073746f60448201526e1c9959081a5b8818dbdb9d1c9858dd608a1b606482015260840161020b565b6001600160a01b0383166000908152600360205260408120805484929061041f908490610857565b9091555061043990506001600160a01b03841633846104f0565b604080513381526001600160a01b03851660208201529081018390527fd1c19fbcd4551a5edfb66d43d2e337c04837afda3482b42bdf569a8fccdae5fb90606001610291565b6040516001600160a01b03808516602483015283166044820152606481018290526104ea9085906323b872dd60e01b906084015b60408051601f198184030181529190526020810180516001600160e01b03166001600160e01b031990931692909217909152610525565b50505050565b6040516001600160a01b03831660248201526044810182905261052090849063a9059cbb60e01b906064016104b3565b505050565b600061057a826040518060400160405280602081526020017f5361666545524332303a206c6f772d6c6576656c2063616c6c206661696c6564815250856001600160a01b03166105f79092919063ffffffff16565b805190915015610520578080602001905181019061059891906107d0565b6105205760405162461bcd60e51b815260206004820152602a60248201527f5361666545524332303a204552433230206f7065726174696f6e20646964206e6044820152691bdd081cdd58d8d9595960b21b606482015260840161020b565b60606106068484600085610610565b90505b9392505050565b6060824710156106715760405162461bcd60e51b815260206004820152602660248201527f416464726573733a20696e73756666696369656e742062616c616e636520666f6044820152651c8818d85b1b60d21b606482015260840161020b565b843b6106bf5760405162461bcd60e51b815260206004820152601d60248201527f416464726573733a2063616c6c20746f206e6f6e2d636f6e7472616374000000604482015260640161020b565b600080866001600160a01b031685876040516106db91906107f0565b60006040518083038185875af1925050503d8060008114610718576040519150601f19603f3d011682016040523d82523d6000602084013e61071d565b606091505b509150915061072d828286610738565b979650505050505050565b60608315610747575081610609565b8251156107575782518084602001fd5b8160405162461bcd60e51b815260040161020b919061080c565b80356001600160a01b038116811461078857600080fd5b919050565b60006020828403121561079e578081fd5b61060982610771565b600080604083850312156107b9578081fd5b6107c283610771565b946020939093013593505050565b6000602082840312156107e1578081fd5b81518015158114610609578182fd5b6000825161080281846020870161086e565b9190910192915050565b602081526000825180602084015261082b81604085016020870161086e565b601f01601f19169190910160400192915050565b600082198211156108525761085261089a565b500190565b6000828210156108695761086961089a565b500390565b60005b83811015610889578181015183820152602001610871565b838111156104ea5750506000910152565b634e487b7160e01b600052601160045260246000fdfea2646970667358221220d3cbd75026ed8bb4aed2843b13f8765acbeaeba18d7c33d190f8a0ce8ed3860d64736f6c63430008040033",
  "linkReferences": {},
  "deployedLinkReferences": {}
}