{
  "_format": "hh-sol-artifact-1",
  "contractName": "BaseCarbonTonne",
  "sourceName": "contracts/CO2KEN_contracts/pools/BaseCarbonTonne.sol",
  "abi": [
    {
      "anonymous": false,
      "inputs": [
        {
          "indexed": false,
          "internalType": "address",
          "name": "previousAdmin",
          "type": "address"
        },
        {
          "indexed": false,
          "internalType": "address",
          "name": "newAdmin",
          "type": "address"
        }
      ],
      "name": "AdminChanged",
      "type": "event"
    },
    {
      "anonymous": false,
      "inputs": [
        {
          "indexed": true,
          "internalType": "address",
          "name": "owner",
          "type": "address"
        },
        {
          "indexed": true,
          "internalType": "address",
          "name": "spender",
          "type": "address"
        },
        {
          "indexed": false,
          "internalType": "uint256",
          "name": "value",
          "type": "uint256"
        }
      ],
      "name": "Approval",
      "type": "event"
    },
    {
      "anonymous": false,
      "inputs": [
        {
          "indexed": true,
          "internalType": "address",
          "name": "beacon",
          "type": "address"
        }
      ],
      "name": "BeaconUpgraded",
      "type": "event"
    },
    {
      "anonymous": false,
      "inputs": [
        {
          "indexed": false,
          "internalType": "address",
          "name": "erc20Addr",
          "type": "address"
        },
        {
          "indexed": false,
          "internalType": "uint256",
          "name": "amount",
          "type": "uint256"
        }
      ],
      "name": "Deposited",
      "type": "event"
    },
    {
      "anonymous": false,
      "inputs": [
        {
          "indexed": true,
          "internalType": "address",
          "name": "previousOwner",
          "type": "address"
        },
        {
          "indexed": true,
          "internalType": "address",
          "name": "newOwner",
          "type": "address"
        }
      ],
      "name": "OwnershipTransferred",
      "type": "event"
    },
    {
      "anonymous": false,
      "inputs": [
        {
          "indexed": false,
          "internalType": "address",
          "name": "account",
          "type": "address"
        }
      ],
      "name": "Paused",
      "type": "event"
    },
    {
      "anonymous": false,
      "inputs": [
        {
          "indexed": false,
          "internalType": "address",
          "name": "account",
          "type": "address"
        },
        {
          "indexed": false,
          "internalType": "address",
          "name": "erc20",
          "type": "address"
        },
        {
          "indexed": false,
          "internalType": "uint256",
          "name": "amount",
          "type": "uint256"
        }
      ],
      "name": "Redeemed",
      "type": "event"
    },
    {
      "anonymous": false,
      "inputs": [
        {
          "indexed": true,
          "internalType": "bytes32",
          "name": "role",
          "type": "bytes32"
        },
        {
          "indexed": true,
          "internalType": "bytes32",
          "name": "previousAdminRole",
          "type": "bytes32"
        },
        {
          "indexed": true,
          "internalType": "bytes32",
          "name": "newAdminRole",
          "type": "bytes32"
        }
      ],
      "name": "RoleAdminChanged",
      "type": "event"
    },
    {
      "anonymous": false,
      "inputs": [
        {
          "indexed": true,
          "internalType": "bytes32",
          "name": "role",
          "type": "bytes32"
        },
        {
          "indexed": true,
          "internalType": "address",
          "name": "account",
          "type": "address"
        },
        {
          "indexed": true,
          "internalType": "address",
          "name": "sender",
          "type": "address"
        }
      ],
      "name": "RoleGranted",
      "type": "event"
    },
    {
      "anonymous": false,
      "inputs": [
        {
          "indexed": true,
          "internalType": "bytes32",
          "name": "role",
          "type": "bytes32"
        },
        {
          "indexed": true,
          "internalType": "address",
          "name": "account",
          "type": "address"
        },
        {
          "indexed": true,
          "internalType": "address",
          "name": "sender",
          "type": "address"
        }
      ],
      "name": "RoleRevoked",
      "type": "event"
    },
    {
      "anonymous": false,
      "inputs": [
        {
          "indexed": true,
          "internalType": "address",
          "name": "from",
          "type": "address"
        },
        {
          "indexed": true,
          "internalType": "address",
          "name": "to",
          "type": "address"
        },
        {
          "indexed": false,
          "internalType": "uint256",
          "name": "value",
          "type": "uint256"
        }
      ],
      "name": "Transfer",
      "type": "event"
    },
    {
      "anonymous": false,
      "inputs": [
        {
          "indexed": false,
          "internalType": "address",
          "name": "account",
          "type": "address"
        }
      ],
      "name": "Unpaused",
      "type": "event"
    },
    {
      "anonymous": false,
      "inputs": [
        {
          "indexed": true,
          "internalType": "address",
          "name": "implementation",
          "type": "address"
        }
      ],
      "name": "Upgraded",
      "type": "event"
    },
    {
      "inputs": [],
      "name": "DEFAULT_ADMIN_ROLE",
      "outputs": [
        {
          "internalType": "bytes32",
          "name": "",
          "type": "bytes32"
        }
      ],
      "stateMutability": "view",
      "type": "function"
    },
    {
      "inputs": [],
      "name": "PAUSER_ROLE",
      "outputs": [
        {
          "internalType": "bytes32",
          "name": "",
          "type": "bytes32"
        }
      ],
      "stateMutability": "view",
      "type": "function"
    },
    {
      "inputs": [
        {
          "internalType": "bool",
          "name": "addToList",
          "type": "bool"
        },
        {
          "internalType": "string[]",
          "name": "_regions",
          "type": "string[]"
        },
        {
          "internalType": "string[]",
          "name": "_standards",
          "type": "string[]"
        },
        {
          "internalType": "string[]",
          "name": "_methodologies",
          "type": "string[]"
        }
      ],
      "name": "addAttributes",
      "outputs": [],
      "stateMutability": "nonpayable",
      "type": "function"
    },
    {
      "inputs": [
        {
          "internalType": "address[]",
          "name": "erc20Addr",
          "type": "address[]"
        }
      ],
      "name": "addToExternalWhiteList",
      "outputs": [],
      "stateMutability": "nonpayable",
      "type": "function"
    },
    {
      "inputs": [
        {
          "internalType": "address[]",
          "name": "erc20Addr",
          "type": "address[]"
        }
      ],
      "name": "addToInternalBlackList",
      "outputs": [],
      "stateMutability": "nonpayable",
      "type": "function"
    },
    {
      "inputs": [
        {
          "internalType": "address[]",
          "name": "erc20Addr",
          "type": "address[]"
        }
      ],
      "name": "addToInternalWhiteList",
      "outputs": [],
      "stateMutability": "nonpayable",
      "type": "function"
    },
    {
      "inputs": [
        {
          "internalType": "address",
          "name": "owner",
          "type": "address"
        },
        {
          "internalType": "address",
          "name": "spender",
          "type": "address"
        }
      ],
      "name": "allowance",
      "outputs": [
        {
          "internalType": "uint256",
          "name": "",
          "type": "uint256"
        }
      ],
      "stateMutability": "view",
      "type": "function"
    },
    {
      "inputs": [
        {
          "internalType": "address",
          "name": "spender",
          "type": "address"
        },
        {
          "internalType": "uint256",
          "name": "amount",
          "type": "uint256"
        }
      ],
      "name": "approve",
      "outputs": [
        {
          "internalType": "bool",
          "name": "",
          "type": "bool"
        }
      ],
      "stateMutability": "nonpayable",
      "type": "function"
    },
    {
      "inputs": [
        {
          "internalType": "address",
          "name": "account",
          "type": "address"
        }
      ],
      "name": "balanceOf",
      "outputs": [
        {
          "internalType": "uint256",
          "name": "",
          "type": "uint256"
        }
      ],
      "stateMutability": "view",
      "type": "function"
    },
    {
      "inputs": [
        {
          "internalType": "address",
          "name": "erc20Addr",
          "type": "address"
        }
      ],
      "name": "checkAttributeMatching",
      "outputs": [
        {
          "internalType": "bool",
          "name": "",
          "type": "bool"
        }
      ],
      "stateMutability": "view",
      "type": "function"
    },
    {
      "inputs": [],
      "name": "contractRegistry",
      "outputs": [
        {
          "internalType": "address",
          "name": "",
          "type": "address"
        }
      ],
      "stateMutability": "view",
      "type": "function"
    },
    {
      "inputs": [],
      "name": "decimals",
      "outputs": [
        {
          "internalType": "uint8",
          "name": "",
          "type": "uint8"
        }
      ],
      "stateMutability": "view",
      "type": "function"
    },
    {
      "inputs": [
        {
          "internalType": "address",
          "name": "spender",
          "type": "address"
        },
        {
          "internalType": "uint256",
          "name": "subtractedValue",
          "type": "uint256"
        }
      ],
      "name": "decreaseAllowance",
      "outputs": [
        {
          "internalType": "bool",
          "name": "",
          "type": "bool"
        }
      ],
      "stateMutability": "nonpayable",
      "type": "function"
    },
    {
      "inputs": [
        {
          "internalType": "address",
          "name": "erc20Addr",
          "type": "address"
        },
        {
          "internalType": "uint256",
          "name": "amount",
          "type": "uint256"
        }
      ],
      "name": "deposit",
      "outputs": [],
      "stateMutability": "nonpayable",
      "type": "function"
    },
    {
      "inputs": [
        {
          "internalType": "address",
          "name": "",
          "type": "address"
        }
      ],
      "name": "externalWhiteList",
      "outputs": [
        {
          "internalType": "bool",
          "name": "",
          "type": "bool"
        }
      ],
      "stateMutability": "view",
      "type": "function"
    },
    {
      "inputs": [],
      "name": "getRemaining",
      "outputs": [
        {
          "internalType": "uint256",
          "name": "",
          "type": "uint256"
        }
      ],
      "stateMutability": "view",
      "type": "function"
    },
    {
      "inputs": [
        {
          "internalType": "bytes32",
          "name": "role",
          "type": "bytes32"
        }
      ],
      "name": "getRoleAdmin",
      "outputs": [
        {
          "internalType": "bytes32",
          "name": "",
          "type": "bytes32"
        }
      ],
      "stateMutability": "view",
      "type": "function"
    },
    {
      "inputs": [
        {
          "internalType": "bytes32",
          "name": "role",
          "type": "bytes32"
        },
        {
          "internalType": "address",
          "name": "account",
          "type": "address"
        }
      ],
      "name": "grantRole",
      "outputs": [],
      "stateMutability": "nonpayable",
      "type": "function"
    },
    {
      "inputs": [
        {
          "internalType": "bytes32",
          "name": "role",
          "type": "bytes32"
        },
        {
          "internalType": "address",
          "name": "account",
          "type": "address"
        }
      ],
      "name": "hasRole",
      "outputs": [
        {
          "internalType": "bool",
          "name": "",
          "type": "bool"
        }
      ],
      "stateMutability": "view",
      "type": "function"
    },
    {
      "inputs": [
        {
          "internalType": "address",
          "name": "spender",
          "type": "address"
        },
        {
          "internalType": "uint256",
          "name": "addedValue",
          "type": "uint256"
        }
      ],
      "name": "increaseAllowance",
      "outputs": [
        {
          "internalType": "bool",
          "name": "",
          "type": "bool"
        }
      ],
      "stateMutability": "nonpayable",
      "type": "function"
    },
    {
      "inputs": [
        {
          "internalType": "uint64",
          "name": "_minimumVintageStartTime",
          "type": "uint64"
        }
      ],
      "name": "initialize",
      "outputs": [],
      "stateMutability": "nonpayable",
      "type": "function"
    },
    {
      "inputs": [
        {
          "internalType": "address",
          "name": "",
          "type": "address"
        }
      ],
      "name": "internalBlackList",
      "outputs": [
        {
          "internalType": "bool",
          "name": "",
          "type": "bool"
        }
      ],
      "stateMutability": "view",
      "type": "function"
    },
    {
      "inputs": [
        {
          "internalType": "address",
          "name": "",
          "type": "address"
        }
      ],
      "name": "internalWhiteList",
      "outputs": [
        {
          "internalType": "bool",
          "name": "",
          "type": "bool"
        }
      ],
      "stateMutability": "view",
      "type": "function"
    },
    {
      "inputs": [
        {
          "internalType": "string",
          "name": "",
          "type": "string"
        }
      ],
      "name": "methodologies",
      "outputs": [
        {
          "internalType": "bool",
          "name": "",
          "type": "bool"
        }
      ],
      "stateMutability": "view",
      "type": "function"
    },
    {
      "inputs": [],
      "name": "methodologiesIsAcceptedMapping",
      "outputs": [
        {
          "internalType": "bool",
          "name": "",
          "type": "bool"
        }
      ],
      "stateMutability": "view",
      "type": "function"
    },
    {
      "inputs": [],
      "name": "minimumVintageStartTime",
      "outputs": [
        {
          "internalType": "uint64",
          "name": "",
          "type": "uint64"
        }
      ],
      "stateMutability": "view",
      "type": "function"
    },
    {
      "inputs": [],
      "name": "name",
      "outputs": [
        {
          "internalType": "string",
          "name": "",
          "type": "string"
        }
      ],
      "stateMutability": "view",
      "type": "function"
    },
    {
      "inputs": [],
      "name": "owner",
      "outputs": [
        {
          "internalType": "address",
          "name": "",
          "type": "address"
        }
      ],
      "stateMutability": "view",
      "type": "function"
    },
    {
      "inputs": [],
      "name": "pause",
      "outputs": [],
      "stateMutability": "nonpayable",
      "type": "function"
    },
    {
      "inputs": [],
      "name": "paused",
      "outputs": [
        {
          "internalType": "bool",
          "name": "",
          "type": "bool"
        }
      ],
      "stateMutability": "view",
      "type": "function"
    },
    {
      "inputs": [
        {
          "internalType": "address[]",
          "name": "erc20s",
          "type": "address[]"
        },
        {
          "internalType": "uint256[]",
          "name": "amounts",
          "type": "uint256[]"
        }
      ],
      "name": "redeemMany",
      "outputs": [],
      "stateMutability": "nonpayable",
      "type": "function"
    },
    {
      "inputs": [
        {
          "internalType": "string",
          "name": "",
          "type": "string"
        }
      ],
      "name": "regions",
      "outputs": [
        {
          "internalType": "bool",
          "name": "",
          "type": "bool"
        }
      ],
      "stateMutability": "view",
      "type": "function"
    },
    {
      "inputs": [],
      "name": "regionsIsAcceptedMapping",
      "outputs": [
        {
          "internalType": "bool",
          "name": "",
          "type": "bool"
        }
      ],
      "stateMutability": "view",
      "type": "function"
    },
    {
      "inputs": [
        {
          "internalType": "address[]",
          "name": "erc20Addr",
          "type": "address[]"
        }
      ],
      "name": "removeFromExternalWhiteList",
      "outputs": [],
      "stateMutability": "nonpayable",
      "type": "function"
    },
    {
      "inputs": [
        {
          "internalType": "address[]",
          "name": "erc20Addr",
          "type": "address[]"
        }
      ],
      "name": "removeFromInternalBlackList",
      "outputs": [],
      "stateMutability": "nonpayable",
      "type": "function"
    },
    {
      "inputs": [
        {
          "internalType": "address[]",
          "name": "erc20Addr",
          "type": "address[]"
        }
      ],
      "name": "removeFromInternalWhiteList",
      "outputs": [],
      "stateMutability": "nonpayable",
      "type": "function"
    },
    {
      "inputs": [],
      "name": "renounceOwnership",
      "outputs": [],
      "stateMutability": "nonpayable",
      "type": "function"
    },
    {
      "inputs": [
        {
          "internalType": "bytes32",
          "name": "role",
          "type": "bytes32"
        },
        {
          "internalType": "address",
          "name": "account",
          "type": "address"
        }
      ],
      "name": "renounceRole",
      "outputs": [],
      "stateMutability": "nonpayable",
      "type": "function"
    },
    {
      "inputs": [
        {
          "internalType": "bytes32",
          "name": "role",
          "type": "bytes32"
        },
        {
          "internalType": "address",
          "name": "account",
          "type": "address"
        }
      ],
      "name": "revokeRole",
      "outputs": [],
      "stateMutability": "nonpayable",
      "type": "function"
    },
    {
      "inputs": [
        {
          "internalType": "uint64",
          "name": "_minimumVintageStartTime",
          "type": "uint64"
        }
      ],
      "name": "setMinimumVintageStartTime",
      "outputs": [],
      "stateMutability": "nonpayable",
      "type": "function"
    },
    {
      "inputs": [
        {
          "internalType": "uint256",
          "name": "newCap",
          "type": "uint256"
        }
      ],
      "name": "setSupplyCap",
      "outputs": [],
      "stateMutability": "nonpayable",
      "type": "function"
    },
    {
      "inputs": [
        {
          "internalType": "address",
          "name": "_address",
          "type": "address"
        }
      ],
      "name": "setToucanContractRegistry",
      "outputs": [],
      "stateMutability": "nonpayable",
      "type": "function"
    },
    {
      "inputs": [
        {
          "internalType": "string",
          "name": "",
          "type": "string"
        }
      ],
      "name": "standards",
      "outputs": [
        {
          "internalType": "bool",
          "name": "",
          "type": "bool"
        }
      ],
      "stateMutability": "view",
      "type": "function"
    },
    {
      "inputs": [],
      "name": "standardsIsAcceptedMapping",
      "outputs": [
        {
          "internalType": "bool",
          "name": "",
          "type": "bool"
        }
      ],
      "stateMutability": "view",
      "type": "function"
    },
    {
      "inputs": [],
      "name": "supplyCap",
      "outputs": [
        {
          "internalType": "uint256",
          "name": "",
          "type": "uint256"
        }
      ],
      "stateMutability": "view",
      "type": "function"
    },
    {
      "inputs": [
        {
          "internalType": "bytes4",
          "name": "interfaceId",
          "type": "bytes4"
        }
      ],
      "name": "supportsInterface",
      "outputs": [
        {
          "internalType": "bool",
          "name": "",
          "type": "bool"
        }
      ],
      "stateMutability": "view",
      "type": "function"
    },
    {
      "inputs": [
        {
          "internalType": "string",
          "name": "_mappingName",
          "type": "string"
        },
        {
          "internalType": "bool",
          "name": "accepted",
          "type": "bool"
        }
      ],
      "name": "switchMapping",
      "outputs": [],
      "stateMutability": "nonpayable",
      "type": "function"
    },
    {
      "inputs": [],
      "name": "symbol",
      "outputs": [
        {
          "internalType": "string",
          "name": "",
          "type": "string"
        }
      ],
      "stateMutability": "view",
      "type": "function"
    },
    {
      "inputs": [
        {
          "internalType": "address",
          "name": "",
          "type": "address"
        }
      ],
      "name": "tokenBalances",
      "outputs": [
        {
          "internalType": "uint256",
          "name": "",
          "type": "uint256"
        }
      ],
      "stateMutability": "view",
      "type": "function"
    },
    {
      "inputs": [],
      "name": "totalSupply",
      "outputs": [
        {
          "internalType": "uint256",
          "name": "",
          "type": "uint256"
        }
      ],
      "stateMutability": "view",
      "type": "function"
    },
    {
      "inputs": [
        {
          "internalType": "address",
          "name": "recipient",
          "type": "address"
        },
        {
          "internalType": "uint256",
          "name": "amount",
          "type": "uint256"
        }
      ],
      "name": "transfer",
      "outputs": [
        {
          "internalType": "bool",
          "name": "",
          "type": "bool"
        }
      ],
      "stateMutability": "nonpayable",
      "type": "function"
    },
    {
      "inputs": [
        {
          "internalType": "address",
          "name": "sender",
          "type": "address"
        },
        {
          "internalType": "address",
          "name": "recipient",
          "type": "address"
        },
        {
          "internalType": "uint256",
          "name": "amount",
          "type": "uint256"
        }
      ],
      "name": "transferFrom",
      "outputs": [
        {
          "internalType": "bool",
          "name": "",
          "type": "bool"
        }
      ],
      "stateMutability": "nonpayable",
      "type": "function"
    },
    {
      "inputs": [
        {
          "internalType": "address",
          "name": "newOwner",
          "type": "address"
        }
      ],
      "name": "transferOwnership",
      "outputs": [],
      "stateMutability": "nonpayable",
      "type": "function"
    },
    {
      "inputs": [],
      "name": "unpause",
      "outputs": [],
      "stateMutability": "nonpayable",
      "type": "function"
    },
    {
      "inputs": [
        {
          "internalType": "address",
          "name": "newImplementation",
          "type": "address"
        }
      ],
      "name": "upgradeTo",
      "outputs": [],
      "stateMutability": "nonpayable",
      "type": "function"
    },
    {
      "inputs": [
        {
          "internalType": "address",
          "name": "newImplementation",
          "type": "address"
        },
        {
          "internalType": "bytes",
          "name": "data",
          "type": "bytes"
        }
      ],
      "name": "upgradeToAndCall",
      "outputs": [],
      "stateMutability": "payable",
      "type": "function"
    }
  ],
  "bytecode": "0x60a06040523060601b60805234801561001757600080fd5b5060805160601c6145d361004b60003960008181610e7a01528181610eba0152818161136a01526113aa01526145d36000f3fe60806040526004361061036b5760003560e01c80638662522f116101c6578063c36a2573116100f7578063eb92db2711610095578063f141b84f1161006f578063f141b84f14610a8a578063f2fde38b14610aac578063f3edb9ec14610acc578063f75991cd14610b0857600080fd5b8063eb92db2714610a08578063f06f510314610a28578063f138ac1614610a5957600080fd5b8063d6a022b8116100d1578063d6a022b814610959578063dd62ed3e1461096e578063e63ab1e9146109b4578063e882e37b146109e857600080fd5b8063c36a257314610903578063d4e457ec1461091e578063d547741f1461093957600080fd5b8063a1631e4b11610164578063a9059cbb1161013e578063a9059cbb14610882578063a9a484c5146108a2578063abf410e5146108c2578063b6a3f59a146108e357600080fd5b8063a1631e4b1461080d578063a217fddf1461084d578063a457c2d71461086257600080fd5b80638dcb01ec116101a05780638dcb01ec146107a15780638f770ad0146107c157806391d14854146107d857806395d89b41146107f857600080fd5b80638662522f1461071357806388c9cf6e1461074f5780638da5cb5b1461076f57600080fd5b80633f4ba83a116102a05780635db44cef1161023e578063715018a611610218578063715018a6146106a95780637966529d146106be57806381e48e90146106de5780638456cb59146106fe57600080fd5b80635db44cef146106225780636fd2f1811461064257806370a082311461067357600080fd5b80634f1ef2861161027a5780634f1ef286146105a9578063523fba7f146105bc57806354c9c970146105ea5780635c975abb1461060a57600080fd5b80633f4ba83a1461055457806346518b0a1461056957806347e7ef241461058957600080fd5b80632b5541421161030d57806336568abe116102e757806336568abe146104d45780633659cfe6146104f4578063395093511461051457806339cd7a8a1461053457600080fd5b80632b554142146104785780632f2ff15d14610498578063313ce567146104b857600080fd5b80630c0efecc116103495780630c0efecc146103e757806318160ddd1461040957806323b872dd14610428578063248a9ca31461044857600080fd5b806301ffc9a71461037057806306fdde03146103a5578063095ea7b3146103c7575b600080fd5b34801561037c57600080fd5b5061039061038b366004613ed3565b610b44565b60405190151581526020015b60405180910390f35b3480156103b157600080fd5b506103ba610b7b565b60405161039c91906141ce565b3480156103d357600080fd5b506103906103e2366004613ccd565b610c0d565b3480156103f357600080fd5b50610407610402366004614121565b610c23565b005b34801561041557600080fd5b506035545b60405190815260200161039c565b34801561043457600080fd5b50610390610443366004613c2d565b610c84565b34801561045457600080fd5b5061041a610463366004613e97565b600090815260fb602052604090206001015490565b34801561048457600080fd5b50610407610493366004613d2a565b610cc7565b3480156104a457600080fd5b506104076104b3366004613eaf565b610dc6565b3480156104c457600080fd5b506040516012815260200161039c565b3480156104e057600080fd5b506104076104ef366004613eaf565b610df1565b34801561050057600080fd5b5061040761050f366004613bd9565b610e6f565b34801561052057600080fd5b5061039061052f366004613ccd565b610f38565b34801561054057600080fd5b5061040761054f366004613f2d565b610f74565b34801561056057600080fd5b506104076110ab565b34801561057557600080fd5b50610407610584366004613cf8565b61114a565b34801561059557600080fd5b506104076105a4366004613ccd565b6111ec565b6104076105b7366004613c6d565b61135f565b3480156105c857600080fd5b5061041a6105d7366004613bd9565b6101926020526000908152604090205481565b3480156105f657600080fd5b50610407610605366004613cf8565b611415565b34801561061657600080fd5b5060975460ff16610390565b34801561062e57600080fd5b5061040761063d366004613cf8565b6114b7565b34801561064e57600080fd5b5061039061065d366004613bd9565b6101996020526000908152604090205460ff1681565b34801561067f57600080fd5b5061041a61068e366004613bd9565b6001600160a01b031660009081526033602052604090205490565b3480156106b557600080fd5b50610407611559565b3480156106ca57600080fd5b506104076106d9366004613cf8565b61158d565b3480156106ea57600080fd5b506104076106f9366004613e01565b61162f565b34801561070a57600080fd5b50610407611926565b34801561071f57600080fd5b5061039061072e366004613efb565b80516020818301810180516101948252928201919093012091525460ff1681565b34801561075b57600080fd5b5061040761076a366004613cf8565b6119c3565b34801561077b57600080fd5b506065546001600160a01b03165b6040516001600160a01b03909116815260200161039c565b3480156107ad57600080fd5b506104076107bc366004613cf8565b611a65565b3480156107cd57600080fd5b5061041a6101915481565b3480156107e457600080fd5b506103906107f3366004613eaf565b611b07565b34801561080457600080fd5b506103ba611b32565b34801561081957600080fd5b506101935461083590600160a01b90046001600160401b031681565b6040516001600160401b03909116815260200161039c565b34801561085957600080fd5b5061041a600081565b34801561086e57600080fd5b5061039061087d366004613ccd565b611b41565b34801561088e57600080fd5b5061039061089d366004613ccd565b611bda565b3480156108ae57600080fd5b506103906108bd366004613bd9565b611c1b565b3480156108ce57600080fd5b5061019354610789906001600160a01b031681565b3480156108ef57600080fd5b506104076108fe366004613e97565b611fc5565b34801561090f57600080fd5b50610195546103909060ff1681565b34801561092a57600080fd5b50610197546103909060ff1681565b34801561094557600080fd5b50610407610954366004613eaf565b611ff5565b34801561096557600080fd5b5061041a61201b565b34801561097a57600080fd5b5061041a610989366004613bf5565b6001600160a01b03918216600090815260346020908152604080832093909416825291909152205490565b3480156109c057600080fd5b5061041a7f65d7a28e3265b37a6474929f336521b332c1681b933f6cb9f3376673440d862a81565b3480156109f457600080fd5b50610407610a03366004613bd9565b612039565b348015610a1457600080fd5b50610407610a23366004614121565b612086565b348015610a3457600080fd5b50610390610a43366004613bd9565b61019b6020526000908152604090205460ff1681565b348015610a6557600080fd5b50610390610a74366004613bd9565b61019a6020526000908152604090205460ff1681565b348015610a9657600080fd5b506101935461039090600160e01b900460ff1681565b348015610ab857600080fd5b50610407610ac7366004613bd9565b6121a8565b348015610ad857600080fd5b50610390610ae7366004613efb565b80516020818301810180516101968252928201919093012091525460ff1681565b348015610b1457600080fd5b50610390610b23366004613efb565b80516020818301810180516101988252928201919093012091525460ff1681565b60006001600160e01b03198216637965db0b60e01b1480610b7557506301ffc9a760e01b6001600160e01b03198316145b92915050565b606060368054610b8a9061449a565b80601f0160208091040260200160405190810160405280929190818152602001828054610bb69061449a565b8015610c035780601f10610bd857610100808354040283529160200191610c03565b820191906000526020600020905b815481529060010190602001808311610be657829003601f168201915b5050505050905090565b6000610c1a338484612240565b50600192915050565b6065546001600160a01b03163314610c565760405162461bcd60e51b8152600401610c4d906142c3565b60405180910390fd5b61019380546001600160401b03909216600160a01b0267ffffffffffffffff60a01b19909216919091179055565b6000826001600160a01b038116610c9a57600080fd5b6001600160a01b038116301415610cb057600080fd5b610cbb858585612364565b50600195945050505050565b60975460ff1615610cea5760405162461bcd60e51b8152600401610c4d90614299565b81518151808214610d495760405162461bcd60e51b8152602060048201526024808201527f4572726f723a204c656e677468206f6620617272617973206e6f74206d61746360448201526368696e6760e01b6064820152608401610c4d565b60005b82811015610dbf57610dad33868381518110610d7857634e487b7160e01b600052603260045260246000fd5b6020026020010151868481518110610da057634e487b7160e01b600052603260045260246000fd5b6020026020010151612410565b80610db7816144d5565b915050610d4c565b5050505050565b600082815260fb6020526040902060010154610de2813361259f565b610dec8383612603565b505050565b6001600160a01b0381163314610e615760405162461bcd60e51b815260206004820152602f60248201527f416363657373436f6e74726f6c3a2063616e206f6e6c792072656e6f756e636560448201526e103937b632b9903337b91039b2b63360891b6064820152608401610c4d565b610e6b8282612689565b5050565b306001600160a01b037f0000000000000000000000000000000000000000000000000000000000000000161415610eb85760405162461bcd60e51b8152600401610c4d90614201565b7f00000000000000000000000000000000000000000000000000000000000000006001600160a01b0316610eea6126f0565b6001600160a01b031614610f105760405162461bcd60e51b8152600401610c4d9061424d565b610f198161271e565b60408051600080825260208201909252610f3591839190612748565b50565b3360008181526034602090815260408083206001600160a01b03871684529091528120549091610c1a918590610f6f908690614409565b612240565b6065546001600160a01b03163314610f9e5760405162461bcd60e51b8152600401610c4d906142c3565b610fc78260405180604001604052806007815260200166726567696f6e7360c81b81525061288c565b15610ffb5780610fe357610193805460ff60e01b191690555050565b610193805460ff60e01b1916600160e01b1790555050565b61102682604051806040016040528060098152602001687374616e646172647360b81b81525061288c565b15611051578061103f57610195805460ff191690555050565b5050610195805460ff19166001179055565b611080826040518060400160405280600d81526020016c6d6574686f646f6c6f6769657360981b81525061288c565b15610e6b578061109957610197805460ff191690555050565b5050610197805460ff19166001179055565b6110d57f65d7a28e3265b37a6474929f336521b332c1681b933f6cb9f3376673440d862a33611b07565b806110f95750336110ee6065546001600160a01b031690565b6001600160a01b0316145b6111405760405162461bcd60e51b815260206004820152601860248201527710d85b1b195c881a5cc81b9bdd08185d5d1a1bdc9a5e995960421b6044820152606401610c4d565b611148612898565b565b6065546001600160a01b031633146111745760405162461bcd60e51b8152600401610c4d906142c3565b805160005b81811015610dec57600161019960008584815181106111a857634e487b7160e01b600052603260045260246000fd5b6020908102919091018101516001600160a01b03168252810191909152604001600020805460ff1916911515919091179055806111e4816144d5565b915050611179565b60975460ff161561120f5760405162461bcd60e51b8152600401610c4d90614299565b6112188261292b565b6112555760405162461bcd60e51b815260206004820152600e60248201526d151bdad95b881c995a9958dd195960921b6044820152606401610c4d565b600061125f61201b565b9050600081116112bd5760405162461bcd60e51b815260206004820152602360248201527f4572726f723a2043616e6e6f74206465706f7369742c20506f6f6c20697320666044820152621d5b1b60ea1b6064820152608401610c4d565b808211156112c9578091505b6112de6001600160a01b038416333085612b68565b6001600160a01b0383166000908152610192602052604081208054849290611307908490614409565b9091555061131790503383612bd9565b604080516001600160a01b0385168152602081018490527f2da466a7b24304f47e87fa2e1e5a81b9831ce54fec19055ce277ca2f39ba42c491015b60405180910390a1505050565b306001600160a01b037f00000000000000000000000000000000000000000000000000000000000000001614156113a85760405162461bcd60e51b8152600401610c4d90614201565b7f00000000000000000000000000000000000000000000000000000000000000006001600160a01b03166113da6126f0565b6001600160a01b0316146114005760405162461bcd60e51b8152600401610c4d9061424d565b6114098261271e565b610e6b82826001612748565b6065546001600160a01b0316331461143f5760405162461bcd60e51b8152600401610c4d906142c3565b805160005b81811015610dec57600161019b600085848151811061147357634e487b7160e01b600052603260045260246000fd5b6020908102919091018101516001600160a01b03168252810191909152604001600020805460ff1916911515919091179055806114af816144d5565b915050611444565b6065546001600160a01b031633146114e15760405162461bcd60e51b8152600401610c4d906142c3565b805160005b81811015610dec57600061019b600085848151811061151557634e487b7160e01b600052603260045260246000fd5b6020908102919091018101516001600160a01b03168252810191909152604001600020805460ff191691151591909117905580611551816144d5565b9150506114e6565b6065546001600160a01b031633146115835760405162461bcd60e51b8152600401610c4d906142c3565b6111486000612cc4565b6065546001600160a01b031633146115b75760405162461bcd60e51b8152600401610c4d906142c3565b805160005b81811015610dec57600061019960008584815181106115eb57634e487b7160e01b600052603260045260246000fd5b6020908102919091018101516001600160a01b03168252810191909152604001600020805460ff191691151591909117905580611627816144d5565b9150506115bc565b6065546001600160a01b031633146116595760405162461bcd60e51b8152600401610c4d906142c3565b815180156117455760005b8181101561174357600186151514156116d657600161019685838151811061169c57634e487b7160e01b600052603260045260246000fd5b60200260200101516040516116b1919061413d565b908152604051908190036020019020805491151560ff19909216919091179055611731565b60006101968583815181106116fb57634e487b7160e01b600052603260045260246000fd5b6020026020010151604051611710919061413d565b908152604051908190036020019020805491151560ff199092169190911790555b8061173b816144d5565b915050611664565b505b815180156118315760005b8181101561182f57600187151514156117c257600161019885838151811061178857634e487b7160e01b600052603260045260246000fd5b602002602001015160405161179d919061413d565b908152604051908190036020019020805491151560ff1990921691909117905561181d565b60006101988583815181106117e757634e487b7160e01b600052603260045260246000fd5b60200260200101516040516117fc919061413d565b908152604051908190036020019020805491151560ff199092169190911790555b80611827816144d5565b915050611750565b505b8451801561191d5760005b8181101561191b57600188151514156118ae57600161019488838151811061187457634e487b7160e01b600052603260045260246000fd5b6020026020010151604051611889919061413d565b908152604051908190036020019020805491151560ff19909216919091179055611909565b60006101948883815181106118d357634e487b7160e01b600052603260045260246000fd5b60200260200101516040516118e8919061413d565b908152604051908190036020019020805491151560ff199092169190911790555b80611913816144d5565b91505061183c565b505b50505050505050565b6119507f65d7a28e3265b37a6474929f336521b332c1681b933f6cb9f3376673440d862a33611b07565b806119745750336119696065546001600160a01b031690565b6001600160a01b0316145b6119bb5760405162461bcd60e51b815260206004820152601860248201527710d85b1b195c881a5cc81b9bdd08185d5d1a1bdc9a5e995960421b6044820152606401610c4d565b611148612d16565b6065546001600160a01b031633146119ed5760405162461bcd60e51b8152600401610c4d906142c3565b805160005b81811015610dec57600161019a6000858481518110611a2157634e487b7160e01b600052603260045260246000fd5b6020908102919091018101516001600160a01b03168252810191909152604001600020805460ff191691151591909117905580611a5d816144d5565b9150506119f2565b6065546001600160a01b03163314611a8f5760405162461bcd60e51b8152600401610c4d906142c3565b805160005b81811015610dec57600061019a6000858481518110611ac357634e487b7160e01b600052603260045260246000fd5b6020908102919091018101516001600160a01b03168252810191909152604001600020805460ff191691151591909117905580611aff816144d5565b915050611a94565b600091825260fb602090815260408084206001600160a01b0393909316845291905290205460ff1690565b606060378054610b8a9061449a565b3360009081526034602090815260408083206001600160a01b038616845290915281205482811015611bc35760405162461bcd60e51b815260206004820152602560248201527f45524332303a2064656372656173656420616c6c6f77616e63652062656c6f77604482015264207a65726f60d81b6064820152608401610c4d565b611bd03385858403612240565b5060019392505050565b6000826001600160a01b038116611bf057600080fd5b6001600160a01b038116301415611c0657600080fd5b611c108484612d6e565b506001949350505050565b6000611c7c60405180610140016040528060608152602001606081526020016060815260200160608152602001606081526020016060815260200160608152602001606081526020016060815260200160006001600160a01b031681525090565b611cf86040518061016001604052806060815260200160006001600160401b0316815260200160006001600160401b031681526020016000815260200160006001600160401b03168152602001600015158152602001600015158152602001606081526020016060815260200160608152602001606081525090565b836001600160a01b031663152583de6040518163ffffffff1660e01b815260040160006040518083038186803b158015611d3157600080fd5b505afa158015611d45573d6000803e3d6000fd5b505050506040513d6000823e601f3d908101601f19168201604052611d6d9190810190613f71565b6101935460208201519294509092506001600160401b03600160a01b909104811691161015611e045760405162461bcd60e51b815260206004820152603760248201527f56696e7461676520737461727473206265666f726520706f6f6c2773206d696e60448201527f696d756d2076696e746167652073746172742074696d650000000000000000006064820152608401610c4d565b610193601c9054906101000a900460ff1615156101948360600151604051611e2c919061413d565b9081526040519081900360200190205460ff16151514611e9c5760405162461bcd60e51b815260206004820152602560248201527f50726f6a65637420726567696f6e206661696c656420616363657074616e6365604482015264081d195cdd60da1b6064820152608401610c4d565b61019554602083015160405160ff90921615159161019691611ebd9161413d565b9081526040519081900360200190205460ff16151514611f2f5760405162461bcd60e51b815260206004820152602760248201527f50726f6a656374207374616e64617264206661696c656420616363657074616e60448201526618d9481d195cdd60ca1b6064820152608401610c4d565b61019754604080840151905160ff90921615159161019891611f509161413d565b9081526040519081900360200190205460ff16151514611bd05760405162461bcd60e51b815260206004820152602a60248201527f50726f6a656374206d6574686f646f6c6f6779206661696c65642061636365706044820152691d185b98d9481d195cdd60b21b6064820152608401610c4d565b6065546001600160a01b03163314611fef5760405162461bcd60e51b8152600401610c4d906142c3565b61019155565b600082815260fb6020526040902060010154612011813361259f565b610dec8383612689565b600061202660355490565b610191546120349190614440565b905090565b6065546001600160a01b031633146120635760405162461bcd60e51b8152600401610c4d906142c3565b61019380546001600160a01b0319166001600160a01b0392909216919091179055565b600054610100900460ff166120a15760005460ff16156120a5565b303b155b6121085760405162461bcd60e51b815260206004820152602e60248201527f496e697469616c697a61626c653a20636f6e747261637420697320616c72656160448201526d191e481a5b9a5d1a585b1a5e995960921b6064820152608401610c4d565b600054610100900460ff1615801561212a576000805461ffff19166101011790555b612132612d7b565b61213a612da2565b612142612dd2565b61217f60405180606001604052806022815260200161455560229139604051806040016040528060038152602001621090d560ea1b815250612e05565b61218882610c23565b612193600033612e53565b8015610e6b576000805461ff00191690555050565b6065546001600160a01b031633146121d25760405162461bcd60e51b8152600401610c4d906142c3565b6001600160a01b0381166122375760405162461bcd60e51b815260206004820152602660248201527f4f776e61626c653a206e6577206f776e657220697320746865207a65726f206160448201526564647265737360d01b6064820152608401610c4d565b610f3581612cc4565b6001600160a01b0383166122a25760405162461bcd60e51b8152602060048201526024808201527f45524332303a20617070726f76652066726f6d20746865207a65726f206164646044820152637265737360e01b6064820152608401610c4d565b6001600160a01b0382166123035760405162461bcd60e51b815260206004820152602260248201527f45524332303a20617070726f766520746f20746865207a65726f206164647265604482015261737360f01b6064820152608401610c4d565b6001600160a01b0383811660008181526034602090815260408083209487168084529482529182902085905590518481527f8c5be1e5ebec7d5bd14f71427d1e84f3dd0314c0f7b2291e5b200ac8c7c3b925910160405180910390a3505050565b6000612371848484612e5d565b6001600160a01b0384166000908152603460209081526040808320338452909152902054828110156123f65760405162461bcd60e51b815260206004820152602860248201527f45524332303a207472616e7366657220616d6f756e74206578636565647320616044820152676c6c6f77616e636560c01b6064820152608401610c4d565b6124038533858403612240565b60019150505b9392505050565b60975460ff16156124335760405162461bcd60e51b8152600401610c4d90614299565b336001600160a01b0384161461248b5760405162461bcd60e51b815260206004820152601e60248201527f4f6e6c79206f776e2066756e64732063616e2062652072656465656d656400006044820152606401610c4d565b6001600160a01b0382166000908152610192602052604090205481111561250a5760405162461bcd60e51b815260206004820152602d60248201527f43616e6e6f742072656465656d206d6f7265207468616e2069732073746f726560448201526c19081a5b8818dbdb9d1c9858dd609a1b6064820152608401610c4d565b6125148382613036565b6001600160a01b038216600090815261019260205260408120805483929061253d908490614440565b9091555061255790506001600160a01b0383168483613190565b604080516001600160a01b038086168252841660208201529081018290527f27d4634c833b7622a0acddbf7f746183625f105945e95c723ad1d5a9f2a0b6fc90606001611352565b6125a98282611b07565b610e6b576125c1816001600160a01b031660146131c0565b6125cc8360206131c0565b6040516020016125dd929190614159565b60408051601f198184030181529082905262461bcd60e51b8252610c4d916004016141ce565b61260d8282611b07565b610e6b57600082815260fb602090815260408083206001600160a01b03851684529091529020805460ff191660011790556126453390565b6001600160a01b0316816001600160a01b0316837f2f8788117e7eff1d82e926ec794901d17c78024a50270940304540a733656f0d60405160405180910390a45050565b6126938282611b07565b15610e6b57600082815260fb602090815260408083206001600160a01b0385168085529252808320805460ff1916905551339285917ff6391f5c32d9c69d2a47ea670b442974b53935d1edc7fd64eb21e047a839171b9190a45050565b7f360894a13ba1a3210667c828492db98dca3e2076cc3735a920a3ca505d382bbc546001600160a01b031690565b6065546001600160a01b03163314610f355760405162461bcd60e51b8152600401610c4d906142c3565b60006127526126f0565b905061275d846133a1565b60008351118061276a5750815b1561277b576127798484613446565b505b7f4910fdfa16fed3260ed0e7147f7cc6da11a60208b5b9406d12a635614ffd9143805460ff16610dbf57805460ff191660011781556040516001600160a01b03831660248201526127fa90869060440160408051601f198184030181529190526020810180516001600160e01b0316631b2ce7f360e11b179052613446565b50805460ff1916815561280b6126f0565b6001600160a01b0316826001600160a01b0316146128835760405162461bcd60e51b815260206004820152602f60248201527f45524331393637557067726164653a207570677261646520627265616b73206660448201526e75727468657220757067726164657360881b6064820152608401610c4d565b610dbf85613531565b60006124098383613571565b60975460ff166128e15760405162461bcd60e51b815260206004820152601460248201527314185d5cd8589b194e881b9bdd081c185d5cd95960621b6044820152606401610c4d565b6097805460ff191690557f5db9ee0a495bf2e6ff9c91a7834c1ba4fdd244a5e8aa4e537bd38aeae4b073aa335b6040516001600160a01b03909116815260200160405180910390a1565b6101935460405163787d871360e01b81526001600160a01b038381166004830152600092839291169063787d87139060240160206040518083038186803b15801561297557600080fd5b505afa158015612989573d6000803e3d6000fd5b505050506040513d601f19601f820116820180604052508101906129ad9190613de5565b90508015612ade576001600160a01b038316600090815261019a602052604090205460ff16156129e05750600192915050565b6001600160a01b038316600090815261019b602052604090205460ff1615612a595760405162461bcd60e51b815260206004820152602660248201527f4572726f723a2054434f3220746f6b656e20636f6e747261637420626c61636b6044820152651b1a5cdd195960d21b6064820152608401610c4d565b612a6283611c1b565b1515600114612ad95760405162461bcd60e51b815260206004820152603c60248201527f4572726f723a2054434f3220746f6b656e20636f6e74726163742072656a656360448201527f7465642c206e6f6e2d6d61746368696e672061747472696275746573000000006064820152608401610c4d565b610c1a565b6001600160a01b0383166000908152610199602052604090205460ff161515600114610c1a5760405162461bcd60e51b815260206004820152603360248201527f4572726f723a2045787465726e616c20636172626f6e2063726564697420746f6044820152721ad95b881b9bdd081dda1a5d195b1a5cdd1959606a1b6064820152608401610c4d565b6040516001600160a01b0380851660248301528316604482015260648101829052612bd39085906323b872dd60e01b906084015b60408051601f198184030181529190526020810180516001600160e01b03166001600160e01b031990931692909217909152613596565b50505050565b6001600160a01b038216612c2f5760405162461bcd60e51b815260206004820152601f60248201527f45524332303a206d696e7420746f20746865207a65726f2061646472657373006044820152606401610c4d565b612c3b60008383613668565b8060356000828254612c4d9190614409565b90915550506001600160a01b03821660009081526033602052604081208054839290612c7a908490614409565b90915550506040518181526001600160a01b038316906000907fddf252ad1be2c89b69c2b068fc378daa952ba7f163c4a11628f55a4df523b3ef9060200160405180910390a35050565b606580546001600160a01b038381166001600160a01b0319831681179093556040519116919082907f8be0079c531659141344cd1fd0a4f28419497f9722a3daafe3b4186f6b6457e090600090a35050565b60975460ff1615612d395760405162461bcd60e51b8152600401610c4d90614299565b6097805460ff191660011790557f62e78cea01bee320cd4e420270b5ea74000d11b0c9f74754ebdbfc544b05a25861290e3390565b6000610c1a338484612e5d565b600054610100900460ff166111485760405162461bcd60e51b8152600401610c4d906142f8565b600054610100900460ff16612dc95760405162461bcd60e51b8152600401610c4d906142f8565b61114833612cc4565b600054610100900460ff16612df95760405162461bcd60e51b8152600401610c4d906142f8565b6097805460ff19169055565b600054610100900460ff16612e2c5760405162461bcd60e51b8152600401610c4d906142f8565b8151612e3f906036906020850190613846565b508051610dec906037906020840190613846565b610e6b8282612603565b6001600160a01b038316612ec15760405162461bcd60e51b815260206004820152602560248201527f45524332303a207472616e736665722066726f6d20746865207a65726f206164604482015264647265737360d81b6064820152608401610c4d565b6001600160a01b038216612f235760405162461bcd60e51b815260206004820152602360248201527f45524332303a207472616e7366657220746f20746865207a65726f206164647260448201526265737360e81b6064820152608401610c4d565b612f2e838383613668565b6001600160a01b03831660009081526033602052604090205481811015612fa65760405162461bcd60e51b815260206004820152602660248201527f45524332303a207472616e7366657220616d6f756e7420657863656564732062604482015265616c616e636560d01b6064820152608401610c4d565b6001600160a01b03808516600090815260336020526040808220858503905591851681529081208054849290612fdd908490614409565b92505081905550826001600160a01b0316846001600160a01b03167fddf252ad1be2c89b69c2b068fc378daa952ba7f163c4a11628f55a4df523b3ef8460405161302991815260200190565b60405180910390a3612bd3565b6001600160a01b0382166130965760405162461bcd60e51b815260206004820152602160248201527f45524332303a206275726e2066726f6d20746865207a65726f206164647265736044820152607360f81b6064820152608401610c4d565b6130a282600083613668565b6001600160a01b038216600090815260336020526040902054818110156131165760405162461bcd60e51b815260206004820152602260248201527f45524332303a206275726e20616d6f756e7420657863656564732062616c616e604482015261636560f01b6064820152608401610c4d565b6001600160a01b0383166000908152603360205260408120838303905560358054849290613145908490614440565b90915550506040518281526000906001600160a01b038516907fddf252ad1be2c89b69c2b068fc378daa952ba7f163c4a11628f55a4df523b3ef9060200160405180910390a3505050565b6040516001600160a01b038316602482015260448101829052610dec90849063a9059cbb60e01b90606401612b9c565b606060006131cf836002614421565b6131da906002614409565b6001600160401b038111156131ff57634e487b7160e01b600052604160045260246000fd5b6040519080825280601f01601f191660200182016040528015613229576020820181803683370190505b509050600360fc1b8160008151811061325257634e487b7160e01b600052603260045260246000fd5b60200101906001600160f81b031916908160001a905350600f60fb1b8160018151811061328f57634e487b7160e01b600052603260045260246000fd5b60200101906001600160f81b031916908160001a90535060006132b3846002614421565b6132be906001614409565b90505b6001811115613352576f181899199a1a9b1b9c1cb0b131b232b360811b85600f166010811061330057634e487b7160e01b600052603260045260246000fd5b1a60f81b82828151811061332457634e487b7160e01b600052603260045260246000fd5b60200101906001600160f81b031916908160001a90535060049490941c9361334b81614483565b90506132c1565b5083156124095760405162461bcd60e51b815260206004820181905260248201527f537472696e67733a20686578206c656e67746820696e73756666696369656e746044820152606401610c4d565b803b6134055760405162461bcd60e51b815260206004820152602d60248201527f455243313936373a206e657720696d706c656d656e746174696f6e206973206e60448201526c1bdd08184818dbdb9d1c9858dd609a1b6064820152608401610c4d565b7f360894a13ba1a3210667c828492db98dca3e2076cc3735a920a3ca505d382bbc80546001600160a01b0319166001600160a01b0392909216919091179055565b6060823b6134a55760405162461bcd60e51b815260206004820152602660248201527f416464726573733a2064656c65676174652063616c6c20746f206e6f6e2d636f6044820152651b9d1c9858dd60d21b6064820152608401610c4d565b600080846001600160a01b0316846040516134c0919061413d565b600060405180830381855af49150503d80600081146134fb576040519150601f19603f3d011682016040523d82523d6000602084013e613500565b606091505b50915091506135288282604051806060016040528060278152602001614577602791396136ce565b95945050505050565b61353a816133a1565b6040516001600160a01b038216907fbc7cd75a20ee27fd9adebab32041f755214dbc6bffa90cc0225b39da2e5c2d3b90600090a250565b6000815183511480156124095750508051602091820120825192909101919091201490565b60006135eb826040518060400160405280602081526020017f5361666545524332303a206c6f772d6c6576656c2063616c6c206661696c6564815250856001600160a01b03166137079092919063ffffffff16565b805190915015610dec57808060200190518101906136099190613de5565b610dec5760405162461bcd60e51b815260206004820152602a60248201527f5361666545524332303a204552433230206f7065726174696f6e20646964206e6044820152691bdd081cdd58d8d9595960b21b6064820152608401610c4d565b60975460ff1615610dec5760405162461bcd60e51b815260206004820152602a60248201527f45524332305061757361626c653a20746f6b656e207472616e736665722077686044820152691a5b19481c185d5cd95960b21b6064820152608401610c4d565b606083156136dd575081612409565b8251156136ed5782518084602001fd5b8160405162461bcd60e51b8152600401610c4d91906141ce565b6060613716848460008561371e565b949350505050565b60608247101561377f5760405162461bcd60e51b815260206004820152602660248201527f416464726573733a20696e73756666696369656e742062616c616e636520666f6044820152651c8818d85b1b60d21b6064820152608401610c4d565b843b6137cd5760405162461bcd60e51b815260206004820152601d60248201527f416464726573733a2063616c6c20746f206e6f6e2d636f6e74726163740000006044820152606401610c4d565b600080866001600160a01b031685876040516137e9919061413d565b60006040518083038185875af1925050503d8060008114613826576040519150601f19603f3d011682016040523d82523d6000602084013e61382b565b606091505b509150915061383b8282866136ce565b979650505050505050565b8280546138529061449a565b90600052602060002090601f01602090048101928261387457600085556138ba565b82601f1061388d57805160ff19168380011785556138ba565b828001600101855582156138ba579182015b828111156138ba57825182559160200191906001019061389f565b506138c69291506138ca565b5090565b5b808211156138c657600081556001016138cb565b60006138f26138ed846143e2565b61438f565b905082815283838301111561390657600080fd5b828260208301376000602084830101529392505050565b80516139288161451c565b919050565b600082601f83011261393d578081fd5b8135602061394d6138ed836143bf565b80838252828201915082860187848660051b890101111561396c578586fd5b855b858110156139935781356139818161451c565b8452928401929084019060010161396e565b5090979650505050505050565b600082601f8301126139b0578081fd5b813560206139c06138ed836143bf565b80838252828201915082860187848660051b89010111156139df578586fd5b855b858110156139935781356001600160401b038111156139fe578788fd5b613a0c8a87838c0101613a2a565b85525092840192908401906001016139e1565b805161392881614531565b600082601f830112613a3a578081fd5b612409838335602085016138df565b600082601f830112613a59578081fd5b8151613a676138ed826143e2565b818152846020838601011115613a7b578283fd5b613716826020830160208701614457565b60006101608284031215613a9e578081fd5b613aa6614343565b905081516001600160401b0380821115613abf57600080fd5b613acb85838601613a49565b8352613ad960208501613bce565b6020840152613aea60408501613bce565b604084015260608401516060840152613b0560808501613bce565b6080840152613b1660a08501613a1f565b60a0840152613b2760c08501613a1f565b60c084015260e0840151915080821115613b4057600080fd5b613b4c85838601613a49565b60e084015261010091508184015181811115613b6757600080fd5b613b7386828701613a49565b838501525061012091508184015181811115613b8e57600080fd5b613b9a86828701613a49565b838501525061014091508184015181811115613bb557600080fd5b613bc186828701613a49565b8385015250505092915050565b80516139288161453f565b600060208284031215613bea578081fd5b81356124098161451c565b60008060408385031215613c07578081fd5b8235613c128161451c565b91506020830135613c228161451c565b809150509250929050565b600080600060608486031215613c41578081fd5b8335613c4c8161451c565b92506020840135613c5c8161451c565b929592945050506040919091013590565b60008060408385031215613c7f578182fd5b8235613c8a8161451c565b915060208301356001600160401b03811115613ca4578182fd5b8301601f81018513613cb4578182fd5b613cc3858235602084016138df565b9150509250929050565b60008060408385031215613cdf578182fd5b8235613cea8161451c565b946020939093013593505050565b600060208284031215613d09578081fd5b81356001600160401b03811115613d1e578182fd5b6137168482850161392d565b60008060408385031215613d3c578182fd5b82356001600160401b0380821115613d52578384fd5b613d5e8683870161392d565b9350602091508185013581811115613d74578384fd5b85019050601f81018613613d86578283fd5b8035613d946138ed826143bf565b80828252848201915084840189868560051b8701011115613db3578687fd5b8694505b83851015613dd5578035835260019490940193918501918501613db7565b5080955050505050509250929050565b600060208284031215613df6578081fd5b815161240981614531565b60008060008060808587031215613e16578182fd5b8435613e2181614531565b935060208501356001600160401b0380821115613e3c578384fd5b613e48888389016139a0565b94506040870135915080821115613e5d578384fd5b613e69888389016139a0565b93506060870135915080821115613e7e578283fd5b50613e8b878288016139a0565b91505092959194509250565b600060208284031215613ea8578081fd5b5035919050565b60008060408385031215613ec1578182fd5b823591506020830135613c228161451c565b600060208284031215613ee4578081fd5b81356001600160e01b031981168114612409578182fd5b600060208284031215613f0c578081fd5b81356001600160401b03811115613f21578182fd5b61371684828501613a2a565b60008060408385031215613f3f578182fd5b82356001600160401b03811115613f54578283fd5b613f6085828601613a2a565b9250506020830135613c2281614531565b60008060408385031215613f83578182fd5b82516001600160401b0380821115613f99578384fd5b908401906101408287031215613fad578384fd5b613fb561436c565b825182811115613fc3578586fd5b613fcf88828601613a49565b825250602083015182811115613fe3578586fd5b613fef88828601613a49565b602083015250604083015182811115614006578586fd5b61401288828601613a49565b604083015250606083015182811115614029578586fd5b61403588828601613a49565b60608301525060808301518281111561404c578586fd5b61405888828601613a49565b60808301525060a08301518281111561406f578586fd5b61407b88828601613a49565b60a08301525060c083015182811115614092578586fd5b61409e88828601613a49565b60c08301525060e0830151828111156140b5578586fd5b6140c188828601613a49565b60e08301525061010080840151838111156140da578687fd5b6140e689828701613a49565b8284015250506101206140fa81850161391d565b908201526020860151909450915080821115614114578283fd5b50613cc385828601613a8c565b600060208284031215614132578081fd5b81356124098161453f565b6000825161414f818460208701614457565b9190910192915050565b7f416363657373436f6e74726f6c3a206163636f756e7420000000000000000000815260008351614191816017850160208801614457565b7001034b99036b4b9b9b4b733903937b6329607d1b60179184019182015283516141c2816028840160208801614457565b01602801949350505050565b60208152600082518060208401526141ed816040850160208701614457565b601f01601f19169190910160400192915050565b6020808252602c908201527f46756e6374696f6e206d7573742062652063616c6c6564207468726f7567682060408201526b19195b1959d85d1958d85b1b60a21b606082015260800190565b6020808252602c908201527f46756e6374696f6e206d7573742062652063616c6c6564207468726f7567682060408201526b6163746976652070726f787960a01b606082015260800190565b60208082526010908201526f14185d5cd8589b194e881c185d5cd95960821b604082015260600190565b6020808252818101527f4f776e61626c653a2063616c6c6572206973206e6f7420746865206f776e6572604082015260600190565b6020808252602b908201527f496e697469616c697a61626c653a20636f6e7472616374206973206e6f74206960408201526a6e697469616c697a696e6760a81b606082015260800190565b60405161016081016001600160401b038111828210171561436657614366614506565b60405290565b60405161014081016001600160401b038111828210171561436657614366614506565b604051601f8201601f191681016001600160401b03811182821017156143b7576143b7614506565b604052919050565b60006001600160401b038211156143d8576143d8614506565b5060051b60200190565b60006001600160401b038211156143fb576143fb614506565b50601f01601f191660200190565b6000821982111561441c5761441c6144f0565b500190565b600081600019048311821515161561443b5761443b6144f0565b500290565b600082821015614452576144526144f0565b500390565b60005b8381101561447257818101518382015260200161445a565b83811115612bd35750506000910152565b600081614492576144926144f0565b506000190190565b600181811c908216806144ae57607f821691505b602082108114156144cf57634e487b7160e01b600052602260045260246000fd5b50919050565b60006000198214156144e9576144e96144f0565b5060010190565b634e487b7160e01b600052601160045260246000fd5b634e487b7160e01b600052604160045260246000fd5b6001600160a01b0381168114610f3557600080fd5b8015158114610f3557600080fd5b6001600160401b0381168114610f3557600080fdfe546f7563616e2050726f746f636f6c3a204261736520436172626f6e20546f6e6e65416464726573733a206c6f772d6c6576656c2064656c65676174652063616c6c206661696c6564a2646970667358221220b3deff40d97b1378e399a3eb1029f07d1af836cc733c65d3f6a0f5d6d600e37964736f6c63430008040033",
  "linkReferences": {},
  "deployedLinkReferences": {}
}