{
  "_format": "hh-sol-artifact-1",
  "contractName": "ToucanCarbonOffsets",
  "sourceName": "contracts/CO2KEN_contracts/ToucanCarbonOffsets.sol",
  "abi": [
    {
      "anonymous": false,
      "inputs": [
        {
          "indexed": true,
          "internalType": "address",
          "name": "owner",
          "type": "address"
        },
        {
          "indexed": true,
          "internalType": "address",
          "name": "spender",
          "type": "address"
        },
        {
          "indexed": false,
          "internalType": "uint256",
          "name": "value",
          "type": "uint256"
        }
      ],
      "name": "Approval",
      "type": "event"
    },
    {
      "anonymous": false,
      "inputs": [
        {
          "indexed": false,
          "internalType": "address",
          "name": "sender",
          "type": "address"
        },
        {
          "indexed": false,
          "internalType": "uint256",
          "name": "tokenId",
          "type": "uint256"
        }
      ],
      "name": "Retired",
      "type": "event"
    },
    {
      "anonymous": false,
      "inputs": [
        {
          "indexed": true,
          "internalType": "address",
          "name": "from",
          "type": "address"
        },
        {
          "indexed": true,
          "internalType": "address",
          "name": "to",
          "type": "address"
        },
        {
          "indexed": false,
          "internalType": "uint256",
          "name": "value",
          "type": "uint256"
        }
      ],
      "name": "Transfer",
      "type": "event"
    },
    {
      "inputs": [
        {
          "internalType": "address",
          "name": "owner",
          "type": "address"
        },
        {
          "internalType": "address",
          "name": "spender",
          "type": "address"
        }
      ],
      "name": "allowance",
      "outputs": [
        {
          "internalType": "uint256",
          "name": "",
          "type": "uint256"
        }
      ],
      "stateMutability": "view",
      "type": "function"
    },
    {
      "inputs": [
        {
          "internalType": "address",
          "name": "spender",
          "type": "address"
        },
        {
          "internalType": "uint256",
          "name": "amount",
          "type": "uint256"
        }
      ],
      "name": "approve",
      "outputs": [
        {
          "internalType": "bool",
          "name": "",
          "type": "bool"
        }
      ],
      "stateMutability": "nonpayable",
      "type": "function"
    },
    {
      "inputs": [
        {
          "internalType": "address",
          "name": "account",
          "type": "address"
        }
      ],
      "name": "balanceOf",
      "outputs": [
        {
          "internalType": "uint256",
          "name": "",
          "type": "uint256"
        }
      ],
      "stateMutability": "view",
      "type": "function"
    },
    {
      "inputs": [],
      "name": "contractRegistry",
      "outputs": [
        {
          "internalType": "address",
          "name": "",
          "type": "address"
        }
      ],
      "stateMutability": "view",
      "type": "function"
    },
    {
      "inputs": [],
      "name": "decimals",
      "outputs": [
        {
          "internalType": "uint8",
          "name": "",
          "type": "uint8"
        }
      ],
      "stateMutability": "view",
      "type": "function"
    },
    {
      "inputs": [
        {
          "internalType": "address",
          "name": "spender",
          "type": "address"
        },
        {
          "internalType": "uint256",
          "name": "subtractedValue",
          "type": "uint256"
        }
      ],
      "name": "decreaseAllowance",
      "outputs": [
        {
          "internalType": "bool",
          "name": "",
          "type": "bool"
        }
      ],
      "stateMutability": "nonpayable",
      "type": "function"
    },
    {
      "inputs": [],
      "name": "getAttributes",
      "outputs": [
        {
          "components": [
            {
              "internalType": "string",
              "name": "projectId",
              "type": "string"
            },
            {
              "internalType": "string",
              "name": "standard",
              "type": "string"
            },
            {
              "internalType": "string",
              "name": "methodology",
              "type": "string"
            },
            {
              "internalType": "string",
              "name": "region",
              "type": "string"
            },
            {
              "internalType": "string",
              "name": "storageMethod",
              "type": "string"
            },
            {
              "internalType": "string",
              "name": "method",
              "type": "string"
            },
            {
              "internalType": "string",
              "name": "emissionType",
              "type": "string"
            },
            {
              "internalType": "string",
              "name": "category",
              "type": "string"
            },
            {
              "internalType": "string",
              "name": "uri",
              "type": "string"
            },
            {
              "internalType": "address",
              "name": "controller",
              "type": "address"
            }
          ],
          "internalType": "struct ProjectData",
          "name": "",
          "type": "tuple"
        },
        {
          "components": [
            {
              "internalType": "string",
              "name": "name",
              "type": "string"
            },
            {
              "internalType": "uint64",
              "name": "startTime",
              "type": "uint64"
            },
            {
              "internalType": "uint64",
              "name": "endTime",
              "type": "uint64"
            },
            {
              "internalType": "uint256",
              "name": "projectTokenId",
              "type": "uint256"
            },
            {
              "internalType": "uint64",
              "name": "totalVintageQuantity",
              "type": "uint64"
            },
            {
              "internalType": "bool",
              "name": "isCorsiaCompliant",
              "type": "bool"
            },
            {
              "internalType": "bool",
              "name": "isCCPcompliant",
              "type": "bool"
            },
            {
              "internalType": "string",
              "name": "coBenefits",
              "type": "string"
            },
            {
              "internalType": "string",
              "name": "correspAdjustment",
              "type": "string"
            },
            {
              "internalType": "string",
              "name": "additionalCertification",
              "type": "string"
            },
            {
              "internalType": "string",
              "name": "uri",
              "type": "string"
            }
          ],
          "internalType": "struct VintageData",
          "name": "",
          "type": "tuple"
        }
      ],
      "stateMutability": "view",
      "type": "function"
    },
    {
      "inputs": [],
      "name": "getDepositCap",
      "outputs": [
        {
          "internalType": "uint256",
          "name": "",
          "type": "uint256"
        }
      ],
      "stateMutability": "view",
      "type": "function"
    },
    {
      "inputs": [],
      "name": "getGlobalProjectVintageIdentifiers",
      "outputs": [
        {
          "internalType": "string",
          "name": "",
          "type": "string"
        },
        {
          "internalType": "string",
          "name": "",
          "type": "string"
        }
      ],
      "stateMutability": "view",
      "type": "function"
    },
    {
      "inputs": [],
      "name": "getRemaining",
      "outputs": [
        {
          "internalType": "uint256",
          "name": "remaining",
          "type": "uint256"
        }
      ],
      "stateMutability": "view",
      "type": "function"
    },
    {
      "inputs": [
        {
          "internalType": "address",
          "name": "spender",
          "type": "address"
        },
        {
          "internalType": "uint256",
          "name": "addedValue",
          "type": "uint256"
        }
      ],
      "name": "increaseAllowance",
      "outputs": [
        {
          "internalType": "bool",
          "name": "",
          "type": "bool"
        }
      ],
      "stateMutability": "nonpayable",
      "type": "function"
    },
    {
      "inputs": [
        {
          "internalType": "string",
          "name": "name_",
          "type": "string"
        },
        {
          "internalType": "string",
          "name": "symbol_",
          "type": "string"
        },
        {
          "internalType": "uint256",
          "name": "_projectVintageTokenId",
          "type": "uint256"
        },
        {
          "internalType": "address",
          "name": "_contractRegistry",
          "type": "address"
        }
      ],
      "name": "initialize",
      "outputs": [],
      "stateMutability": "nonpayable",
      "type": "function"
    },
    {
      "inputs": [
        {
          "internalType": "address",
          "name": "to",
          "type": "address"
        },
        {
          "internalType": "uint256",
          "name": "amount",
          "type": "uint256"
        }
      ],
      "name": "mintBadgeNFT",
      "outputs": [],
      "stateMutability": "nonpayable",
      "type": "function"
    },
    {
      "inputs": [
        {
          "internalType": "address",
          "name": "",
          "type": "address"
        }
      ],
      "name": "minterToId",
      "outputs": [
        {
          "internalType": "uint256",
          "name": "",
          "type": "uint256"
        }
      ],
      "stateMutability": "view",
      "type": "function"
    },
    {
      "inputs": [],
      "name": "name",
      "outputs": [
        {
          "internalType": "string",
          "name": "",
          "type": "string"
        }
      ],
      "stateMutability": "view",
      "type": "function"
    },
    {
      "inputs": [
        {
          "internalType": "address",
          "name": "",
          "type": "address"
        },
        {
          "internalType": "address",
          "name": "from",
          "type": "address"
        },
        {
          "internalType": "uint256",
          "name": "tokenId",
          "type": "uint256"
        },
        {
          "internalType": "bytes",
          "name": "",
          "type": "bytes"
        }
      ],
      "name": "onERC721Received",
      "outputs": [
        {
          "internalType": "bytes4",
          "name": "",
          "type": "bytes4"
        }
      ],
      "stateMutability": "nonpayable",
      "type": "function"
    },
    {
      "inputs": [],
      "name": "projectVintageTokenId",
      "outputs": [
        {
          "internalType": "uint256",
          "name": "",
          "type": "uint256"
        }
      ],
      "stateMutability": "view",
      "type": "function"
    },
    {
      "inputs": [
        {
          "internalType": "uint256",
          "name": "amount",
          "type": "uint256"
        }
      ],
      "name": "retire",
      "outputs": [],
      "stateMutability": "nonpayable",
      "type": "function"
    },
    {
      "inputs": [
        {
          "internalType": "address",
          "name": "account",
          "type": "address"
        },
        {
          "internalType": "uint256",
          "name": "amount",
          "type": "uint256"
        }
      ],
      "name": "retireFrom",
      "outputs": [],
      "stateMutability": "nonpayable",
      "type": "function"
    },
    {
      "inputs": [
        {
          "internalType": "address",
          "name": "",
          "type": "address"
        }
      ],
      "name": "retiredAmount",
      "outputs": [
        {
          "internalType": "uint256",
          "name": "",
          "type": "uint256"
        }
      ],
      "stateMutability": "view",
      "type": "function"
    },
    {
      "inputs": [],
      "name": "symbol",
      "outputs": [
        {
          "internalType": "string",
          "name": "",
          "type": "string"
        }
      ],
      "stateMutability": "view",
      "type": "function"
    },
    {
      "inputs": [],
      "name": "totalSupply",
      "outputs": [
        {
          "internalType": "uint256",
          "name": "",
          "type": "uint256"
        }
      ],
      "stateMutability": "view",
      "type": "function"
    },
    {
      "inputs": [
        {
          "internalType": "address",
          "name": "recipient",
          "type": "address"
        },
        {
          "internalType": "uint256",
          "name": "amount",
          "type": "uint256"
        }
      ],
      "name": "transfer",
      "outputs": [
        {
          "internalType": "bool",
          "name": "",
          "type": "bool"
        }
      ],
      "stateMutability": "nonpayable",
      "type": "function"
    },
    {
      "inputs": [
        {
          "internalType": "address",
          "name": "sender",
          "type": "address"
        },
        {
          "internalType": "address",
          "name": "recipient",
          "type": "address"
        },
        {
          "internalType": "uint256",
          "name": "amount",
          "type": "uint256"
        }
      ],
      "name": "transferFrom",
      "outputs": [
        {
          "internalType": "bool",
          "name": "",
          "type": "bool"
        }
      ],
      "stateMutability": "nonpayable",
      "type": "function"
    }
  ],
  "bytecode": "0x608060405234801561001057600080fd5b506129ea806100206000396000f3fe608060405234801561001057600080fd5b50600436106101585760003560e01c80636b24ffd6116100c3578063abf410e51161007c578063abf410e5146102f7578063bd3a13f614610322578063d6a022b814610335578063dd62ed3e1461033d578063e819426c14610376578063e9d5c8d51461037f57600080fd5b80636b24ffd61461026d57806370a082311461028057806395d89b41146102a9578063a19c4bd8146102b1578063a457c2d7146102d1578063a9059cbb146102e457600080fd5b806323b872dd1161011557806323b872dd146101fa578063313ce5671461020d5780633345e37c1461021c5780633790cf5714610231578063395093511461024457806364c5a4031461025757600080fd5b806301a598da1461015d57806306fdde0314610178578063095ea7b31461018d578063150b7a02146101b0578063152583de146101dc57806318160ddd146101f2575b600080fd5b61016561039f565b6040519081526020015b60405180910390f35b6101806103f5565b60405161016f9190612573565b6101a061019b366004611f83565b610430565b604051901515815260200161016f565b6101c36101be366004611eea565b610447565b6040516001600160e01b0319909116815260200161016f565b6101e46107e9565b60405161016f9291906125eb565b603554610165565b6101a0610208366004611eaa565b610a1e565b6040516012815260200161016f565b61022f61022a366004611f83565b610b75565b005b61022f61023f366004612339565b610e15565b6101a0610252366004611f83565b610f36565b61025f610f72565b60405161016f929190612586565b61022f61027b366004611f83565b610f9c565b61016561028e366004611e3a565b6001600160a01b031660009081526033602052604090205490565b610180611139565b6101656102bf366004611e3a565b60686020526000908152604090205481565b6101a06102df366004611f83565b61115e565b6101a06102f2366004611f83565b6111f7565b60665461030a906001600160a01b031681565b6040516001600160a01b03909116815260200161016f565b61022f610330366004611fc8565b61134c565b610165611432565b61016561034b366004611e72565b6001600160a01b03918216600090815260346020908152604080832093909416825291909152205490565b61016560655481565b61016561038d366004611e3a565b60676020526000908152604090205481565b60006103a9611bfe565b6103b16107e9565b6080810151909250905060006103c96012600a612828565b6103dc906001600160401b0384166128d3565b9050806103ee57600019935050505090565b9392505050565b6060806060610402610f72565b604051919350915061041a90839083906020016124c8565b6040516020818303038152906040529250505090565b600061043d338484611458565b5060015b92915050565b600080606660009054906101000a90046001600160a01b03166001600160a01b03166308cca7e36040518163ffffffff1660e01b815260040160206040518083038186803b15801561049857600080fd5b505afa1580156104ac573d6000803e3d6000fd5b505050506040513d601f19601f820116820180604052508101906104d09190611e56565b90506000816001600160a01b0316635c975abb6040518163ffffffff1660e01b815260040160206040518083038186803b15801561050d57600080fd5b505afa158015610521573d6000803e3d6000fd5b505050506040513d601f19601f820116820180604052508101906105459190611fae565b9050801561056e5760405162461bcd60e51b8152600401610565906125b4565b60405180910390fd5b6105773361157c565b6105da5760405162461bcd60e51b815260206004820152602e60248201527f4572726f723a2042617463682d4e4654206e6f742066726f6d2077686974656c60448201526d1a5cdd19590818dbdb9d1c9858dd60921b6064820152608401610565565b60405163dff35e8360e01b81526004810187905260009081908190339063dff35e839060240160606040518083038186803b15801561061857600080fd5b505afa15801561062c573d6000803e3d6000fd5b505050506040513d601f19601f820116820180604052508101906106509190612351565b92509250925061065f83611627565b6106ab5760405162461bcd60e51b815260206004820152601760248201527f4572726f723a206e6f6e2d6d61746368696e67204e46540000000000000000006044820152606401610565565b60028160028111156106cd57634e487b7160e01b600052602160045260246000fd5b1461071a5760405162461bcd60e51b815260206004820152601a60248201527f42617463684e4654206e6f742079657420636f6e6669726d65640000000000006044820152606401610565565b6001600160a01b038a1660009081526067602052604090208990556107416012600a612828565b61074b90836128d3565b91506000610757611432565b90508281116107c75760405162461bcd60e51b815260206004820152603660248201527f4572726f723a205175616e7469747920696e20626174636820697320686967686044820152756572207468616e20746f74616c2076696e746167657360501b6064820152608401610565565b6107d18b8461163b565b50630a85bd0160e11b9b9a5050505050505050505050565b6107f1611c77565b6107f9611bfe565b606654604080516301157a8360e01b815290516000926001600160a01b0316916301157a83916004808301926020929190829003018186803b15801561083e57600080fd5b505afa158015610852573d6000803e3d6000fd5b505050506040513d601f19601f820116820180604052508101906108769190611e56565b90506000606660009054906101000a90046001600160a01b03166001600160a01b031663a0af25606040518163ffffffff1660e01b815260040160206040518083038186803b1580156108c857600080fd5b505afa1580156108dc573d6000803e3d6000fd5b505050506040513d601f19601f820116820180604052508101906109009190611e56565b90506000816001600160a01b03166315bbf0746065546040518263ffffffff1660e01b815260040161093491815260200190565b60006040518083038186803b15801561094c57600080fd5b505afa158015610960573d6000803e3d6000fd5b505050506040513d6000823e601f3d908101601f1916820160405261098891908101906121dd565b90506000836001600160a01b03166347e3168683606001516040518263ffffffff1660e01b81526004016109be91815260200190565b60006040518083038186803b1580156109d657600080fd5b505afa1580156109ea573d6000803e3d6000fd5b505050506040513d6000823e601f3d908101601f19168201604052610a129190810190612044565b96919550909350505050565b6000826001600160a01b038116610a3457600080fd5b6001600160a01b038116301415610a4a57600080fd5b606654604080516308cca7e360e01b815290516000926001600160a01b0316916308cca7e3916004808301926020929190829003018186803b158015610a8f57600080fd5b505afa158015610aa3573d6000803e3d6000fd5b505050506040513d601f19601f82011682018060405250810190610ac79190611e56565b90506000816001600160a01b0316635c975abb6040518163ffffffff1660e01b815260040160206040518083038186803b158015610b0457600080fd5b505afa158015610b18573d6000803e3d6000fd5b505050506040513d601f19601f82011682018060405250810190610b3c9190611fae565b90508015610b5c5760405162461bcd60e51b8152600401610565906125b4565b610b6787878761171a565b506001979650505050505050565b606654604080516308cca7e360e01b815290516000926001600160a01b0316916308cca7e3916004808301926020929190829003018186803b158015610bba57600080fd5b505afa158015610bce573d6000803e3d6000fd5b505050506040513d601f19601f82011682018060405250810190610bf29190611e56565b90506000816001600160a01b0316635c975abb6040518163ffffffff1660e01b815260040160206040518083038186803b158015610c2f57600080fd5b505afa158015610c43573d6000803e3d6000fd5b505050506040513d601f19601f82011682018060405250810190610c679190611fae565b90508015610c875760405162461bcd60e51b8152600401610565906125b4565b60665460408051635e20d0e160e01b815290516000926001600160a01b031691635e20d0e1916004808301926020929190829003018186803b158015610ccc57600080fd5b505afa158015610ce0573d6000803e3d6000fd5b505050506040513d601f19601f82011682018060405250810190610d049190611e56565b33600090815260686020526040902054909150841115610d7c5760405162461bcd60e51b815260206004820152602d60248201527f4572726f723a2043616e6e6f74206d696e74206d6f7265207468616e2075736560448201526c1c881a185cc81c995d1a5c9959609a1b6064820152608401610565565b606554604051627a430960e41b81526001600160a01b038781166004830152602482019290925260448101869052908216906307a4309090606401600060405180830381600087803b158015610dd157600080fd5b505af1158015610de5573d6000803e3d6000fd5b50503360009081526068602052604081208054889450909250610e099084906128f2565b90915550505050505050565b606654604080516308cca7e360e01b815290516000926001600160a01b0316916308cca7e3916004808301926020929190829003018186803b158015610e5a57600080fd5b505afa158015610e6e573d6000803e3d6000fd5b505050506040513d601f19601f82011682018060405250810190610e929190611e56565b90506000816001600160a01b0316635c975abb6040518163ffffffff1660e01b815260040160206040518083038186803b158015610ecf57600080fd5b505afa158015610ee3573d6000803e3d6000fd5b505050506040513d601f19601f82011682018060405250810190610f079190611fae565b90508015610f275760405162461bcd60e51b8152600401610565906125b4565b610f3133846117c4565b505050565b3360008181526034602090815260408083206001600160a01b0387168452909152812054909161043d918590610f6d9086906127cd565b611458565b606080610f7d611c77565b610f85611bfe565b610f8d6107e9565b90519051909590945092505050565b606654604080516308cca7e360e01b815290516000926001600160a01b0316916308cca7e3916004808301926020929190829003018186803b158015610fe157600080fd5b505afa158015610ff5573d6000803e3d6000fd5b505050506040513d601f19601f820116820180604052508101906110199190611e56565b90506000816001600160a01b0316635c975abb6040518163ffffffff1660e01b815260040160206040518083038186803b15801561105657600080fd5b505afa15801561106a573d6000803e3d6000fd5b505050506040513d601f19601f8201168201806040525081019061108e9190611fae565b905080156110ae5760405162461bcd60e51b8152600401610565906125b4565b60006110ba853361034b565b90508381101561111b5760405162461bcd60e51b815260206004820152602660248201527f45524332303a2072657469726520616d6f756e74206578636565647320616c6c6044820152656f77616e636560d01b6064820152608401610565565b6111288533868403611458565b61113285856117c4565b5050505050565b6060806060611146610f72565b604051919350915061041a9083908390602001612526565b3360009081526034602090815260408083206001600160a01b0386168452909152812054828110156111e05760405162461bcd60e51b815260206004820152602560248201527f45524332303a2064656372656173656420616c6c6f77616e63652062656c6f77604482015264207a65726f60d81b6064820152608401610565565b6111ed3385858403611458565b5060019392505050565b6000826001600160a01b03811661120d57600080fd5b6001600160a01b03811630141561122357600080fd5b606654604080516308cca7e360e01b815290516000926001600160a01b0316916308cca7e3916004808301926020929190829003018186803b15801561126857600080fd5b505afa15801561127c573d6000803e3d6000fd5b505050506040513d601f19601f820116820180604052508101906112a09190611e56565b90506000816001600160a01b0316635c975abb6040518163ffffffff1660e01b815260040160206040518083038186803b1580156112dd57600080fd5b505afa1580156112f1573d6000803e3d6000fd5b505050506040513d601f19601f820116820180604052508101906113159190611fae565b905080156113355760405162461bcd60e51b8152600401610565906125b4565b61133f8686611841565b5060019695505050505050565b600054610100900460ff166113675760005460ff161561136b565b303b155b6113ce5760405162461bcd60e51b815260206004820152602e60248201527f496e697469616c697a61626c653a20636f6e747261637420697320616c72656160448201526d191e481a5b9a5d1a585b1a5e995960921b6064820152608401610565565b600054610100900460ff161580156113f0576000805461ffff19166101011790555b6113fa858561184e565b6065839055606680546001600160a01b0319166001600160a01b0384161790558015611132576000805461ff00191690555050505050565b60008061143d61039f565b905061144860355490565b61145290826128f2565b91505090565b6001600160a01b0383166114ba5760405162461bcd60e51b8152602060048201526024808201527f45524332303a20617070726f76652066726f6d20746865207a65726f206164646044820152637265737360e01b6064820152608401610565565b6001600160a01b03821661151b5760405162461bcd60e51b815260206004820152602260248201527f45524332303a20617070726f766520746f20746865207a65726f206164647265604482015261737360f01b6064820152608401610565565b6001600160a01b0383811660008181526034602090815260408083209487168084529482529182902085905590518481527f8c5be1e5ebec7d5bd14f71427d1e84f3dd0314c0f7b2291e5b200ac8c7c3b925910160405180910390a3505050565b60665460408051634be4e3dd60e01b815290516000926001600160a01b031691634be4e3dd916004808301926020929190829003018186803b1580156115c157600080fd5b505afa1580156115d5573d6000803e3d6000fd5b505050506040513d601f19601f820116820180604052508101906115f99190611e56565b6001600160a01b0316826001600160a01b0316141561161a57506001919050565b506000919050565b919050565b600060655482141561161a57506001919050565b6001600160a01b0382166116915760405162461bcd60e51b815260206004820152601f60248201527f45524332303a206d696e7420746f20746865207a65726f2061646472657373006044820152606401610565565b80603560008282546116a391906127cd565b90915550506001600160a01b038216600090815260336020526040812080548392906116d09084906127cd565b90915550506040518181526001600160a01b038316906000907fddf252ad1be2c89b69c2b068fc378daa952ba7f163c4a11628f55a4df523b3ef9060200160405180910390a35050565b60006117278484846118e0565b6001600160a01b0384166000908152603460209081526040808320338452909152902054828110156117ac5760405162461bcd60e51b815260206004820152602860248201527f45524332303a207472616e7366657220616d6f756e74206578636565647320616044820152676c6c6f77616e636560c01b6064820152608401610565565b6117b98533858403611458565b506001949350505050565b6117ce8282611ab0565b6001600160a01b038216600090815260686020526040812080548392906117f69084906127cd565b9091555050604080516001600160a01b0384168152602081018390527f8dc4b87efb3c82876c566fb305749c81faf4459424134a0470fee3f604048de7910160405180910390a15050565b600061043d3384846118e0565b600054610100900460ff166118b95760405162461bcd60e51b815260206004820152602b60248201527f496e697469616c697a61626c653a20636f6e7472616374206973206e6f74206960448201526a6e697469616c697a696e6760a81b6064820152608401610565565b81516118cc906036906020850190611cd3565b508051610f31906037906020840190611cd3565b6001600160a01b0383166119445760405162461bcd60e51b815260206004820152602560248201527f45524332303a207472616e736665722066726f6d20746865207a65726f206164604482015264647265737360d81b6064820152608401610565565b6001600160a01b0382166119a65760405162461bcd60e51b815260206004820152602360248201527f45524332303a207472616e7366657220746f20746865207a65726f206164647260448201526265737360e81b6064820152608401610565565b6001600160a01b03831660009081526033602052604090205481811015611a1e5760405162461bcd60e51b815260206004820152602660248201527f45524332303a207472616e7366657220616d6f756e7420657863656564732062604482015265616c616e636560d01b6064820152608401610565565b6001600160a01b03808516600090815260336020526040808220858503905591851681529081208054849290611a559084906127cd565b92505081905550826001600160a01b0316846001600160a01b03167fddf252ad1be2c89b69c2b068fc378daa952ba7f163c4a11628f55a4df523b3ef84604051611aa191815260200190565b60405180910390a35b50505050565b6001600160a01b038216611b105760405162461bcd60e51b815260206004820152602160248201527f45524332303a206275726e2066726f6d20746865207a65726f206164647265736044820152607360f81b6064820152608401610565565b6001600160a01b03821660009081526033602052604090205481811015611b845760405162461bcd60e51b815260206004820152602260248201527f45524332303a206275726e20616d6f756e7420657863656564732062616c616e604482015261636560f01b6064820152608401610565565b6001600160a01b0383166000908152603360205260408120838303905560358054849290611bb39084906128f2565b90915550506040518281526000906001600160a01b038516907fddf252ad1be2c89b69c2b068fc378daa952ba7f163c4a11628f55a4df523b3ef9060200160405180910390a3505050565b6040518061016001604052806060815260200160006001600160401b0316815260200160006001600160401b031681526020016000815260200160006001600160401b03168152602001600015158152602001600015158152602001606081526020016060815260200160608152602001606081525090565b60405180610140016040528060608152602001606081526020016060815260200160608152602001606081526020016060815260200160608152602001606081526020016060815260200160006001600160a01b031681525090565b828054611cdf90612935565b90600052602060002090601f016020900481019282611d015760008555611d47565b82601f10611d1a57805160ff1916838001178555611d47565b82800160010185558215611d47579182015b82811115611d47578251825591602001919060010190611d2c565b50611d53929150611d57565b5090565b5b80821115611d535760008155600101611d58565b80516116228161299c565b8051801515811461162257600080fd5b600082601f830112611d97578081fd5b8135611daa611da5826127a6565b612776565b818152846020838601011115611dbe578283fd5b816020850160208301379081016020019190915292915050565b600082601f830112611de8578081fd5b8151611df6611da5826127a6565b818152846020838601011115611e0a578283fd5b611e1b826020830160208701612909565b949350505050565b80516001600160401b038116811461162257600080fd5b600060208284031215611e4b578081fd5b81356103ee8161299c565b600060208284031215611e67578081fd5b81516103ee8161299c565b60008060408385031215611e84578081fd5b8235611e8f8161299c565b91506020830135611e9f8161299c565b809150509250929050565b600080600060608486031215611ebe578081fd5b8335611ec98161299c565b92506020840135611ed98161299c565b929592945050506040919091013590565b600080600080600060808688031215611f01578081fd5b8535611f0c8161299c565b94506020860135611f1c8161299c565b93506040860135925060608601356001600160401b0380821115611f3e578283fd5b818801915088601f830112611f51578283fd5b813581811115611f5f578384fd5b896020828501011115611f70578384fd5b9699959850939650602001949392505050565b60008060408385031215611f95578182fd5b8235611fa08161299c565b946020939093013593505050565b600060208284031215611fbf578081fd5b6103ee82611d77565b60008060008060808587031215611fdd578182fd5b84356001600160401b0380821115611ff3578384fd5b611fff88838901611d87565b95506020870135915080821115612014578384fd5b5061202187828801611d87565b9350506040850135915060608501356120398161299c565b939692955090935050565b600060208284031215612055578081fd5b81516001600160401b038082111561206b578283fd5b90830190610140828603121561207f578283fd5b61208761272a565b825182811115612095578485fd5b6120a187828601611dd8565b8252506020830151828111156120b5578485fd5b6120c187828601611dd8565b6020830152506040830151828111156120d8578485fd5b6120e487828601611dd8565b6040830152506060830151828111156120fb578485fd5b61210787828601611dd8565b60608301525060808301518281111561211e578485fd5b61212a87828601611dd8565b60808301525060a083015182811115612141578485fd5b61214d87828601611dd8565b60a08301525060c083015182811115612164578485fd5b61217087828601611dd8565b60c08301525060e083015182811115612187578485fd5b61219387828601611dd8565b60e08301525061010080840151838111156121ac578586fd5b6121b888828701611dd8565b82840152505061012091506121ce828401611d6c565b91810191909152949350505050565b6000602082840312156121ee578081fd5b81516001600160401b0380821115612204578283fd5b908301906101608286031215612218578283fd5b612220612753565b82518281111561222e578485fd5b61223a87828601611dd8565b82525061224960208401611e23565b602082015261225a60408401611e23565b60408201526060830151606082015261227560808401611e23565b608082015261228660a08401611d77565b60a082015261229760c08401611d77565b60c082015260e0830151828111156122ad578485fd5b6122b987828601611dd8565b60e08301525061010080840151838111156122d2578586fd5b6122de88828701611dd8565b82840152505061012080840151838111156122f7578586fd5b61230388828701611dd8565b828401525050610140808401518381111561231c578586fd5b61232888828701611dd8565b918301919091525095945050505050565b60006020828403121561234a578081fd5b5035919050565b600080600060608486031215612365578081fd5b8351925060208401519150604084015160038110612381578182fd5b809150509250925092565b600081518084526123a4816020860160208601612909565b601f01601f19169290920160200192915050565b600061016082518185526123ce8286018261238c565b91505060208301516123eb60208601826001600160401b03169052565b50604083015161240660408601826001600160401b03169052565b5060608301516060850152608083015161242b60808601826001600160401b03169052565b5060a083015161243f60a086018215159052565b5060c083015161245360c086018215159052565b5060e083015184820360e086015261246b828261238c565b9150506101008084015185830382870152612486838261238c565b9250505061012080840151858303828701526124a2838261238c565b9250505061014080840151858303828701526124be838261238c565b9695505050505050565b75546f7563616e2050726f746f636f6c3a2054434f322d60501b8152600083516124f9816016850160208801612909565b602d60f81b601691840191820152835161251a816017840160208801612909565b01601701949350505050565b6454434f322d60d81b815260008351612546816005850160208801612909565b602d60f81b6005918401918201528351612567816006840160208801612909565b01600601949350505050565b6020815260006103ee602083018461238c565b604081526000612599604083018561238c565b82810360208401526125ab818561238c565b95945050505050565b6020808252601e908201527f4572726f723a2054434f3220636f6e7472616374206973207061757365640000604082015260600190565b604081526000835161014080604085015261260a61018085018361238c565b91506020860151603f1980868503016060870152612628848361238c565b93506040880151915080868503016080870152612645848361238c565b935060608801519150808685030160a0870152612662848361238c565b935060808801519150808685030160c087015261267f848361238c565b935060a08801519150808685030160e087015261269c848361238c565b935060c088015191506101008187860301818801526126bb858461238c565b945060e089015192506101208288870301818901526126da868561238c565b9550818a015193508288870301858901526126f5868561238c565b9550808a01519450505050506127176101608501826001600160a01b03169052565b5082810360208401526125ab81856123b8565b60405161014081016001600160401b038111828210171561274d5761274d612986565b60405290565b60405161016081016001600160401b038111828210171561274d5761274d612986565b604051601f8201601f191681016001600160401b038111828210171561279e5761279e612986565b604052919050565b60006001600160401b038211156127bf576127bf612986565b50601f01601f191660200190565b600082198211156127e0576127e0612970565b500190565b600181815b8085111561282057816000190482111561280657612806612970565b8085161561281357918102915b93841c93908002906127ea565b509250929050565b60006103ee60ff84168360008261284157506001610441565b8161284e57506000610441565b8160018114612864576002811461286e5761288a565b6001915050610441565b60ff84111561287f5761287f612970565b50506001821b610441565b5060208310610133831016604e8410600b84101617156128ad575081810a610441565b6128b783836127e5565b80600019048211156128cb576128cb612970565b029392505050565b60008160001904831182151516156128ed576128ed612970565b500290565b60008282101561290457612904612970565b500390565b60005b8381101561292457818101518382015260200161290c565b83811115611aaa5750506000910152565b600181811c9082168061294957607f821691505b6020821081141561296a57634e487b7160e01b600052602260045260246000fd5b50919050565b634e487b7160e01b600052601160045260246000fd5b634e487b7160e01b600052604160045260246000fd5b6001600160a01b03811681146129b157600080fd5b5056fea2646970667358221220241786016c0c70d0c56289f2b2d7932cc4a1c92469f90f07a17f0e58fd699bd264736f6c63430008040033",
  "linkReferences": {},
  "deployedLinkReferences": {}
}